{
  "contractName": "oraclizeLib",
  "abi": [
    {
      "constant": true,
      "inputs": [],
      "name": "proofType_NONE",
      "outputs": [
        {
          "name": "",
          "type": "bytes1"
        }
      ],
      "payable": false,
      "stateMutability": "pure",
      "type": "function"
    },
    {
      "constant": true,
      "inputs": [],
      "name": "proofType_TLSNotary",
      "outputs": [
        {
          "name": "",
          "type": "bytes1"
        }
      ],
      "payable": false,
      "stateMutability": "pure",
      "type": "function"
    },
    {
      "constant": true,
      "inputs": [],
      "name": "proofType_Android",
      "outputs": [
        {
          "name": "",
          "type": "bytes1"
        }
      ],
      "payable": false,
      "stateMutability": "pure",
      "type": "function"
    },
    {
      "constant": true,
      "inputs": [],
      "name": "proofType_Ledger",
      "outputs": [
        {
          "name": "",
          "type": "bytes1"
        }
      ],
      "payable": false,
      "stateMutability": "pure",
      "type": "function"
    },
    {
      "constant": true,
      "inputs": [],
      "name": "proofType_Native",
      "outputs": [
        {
          "name": "",
          "type": "bytes1"
        }
      ],
      "payable": false,
      "stateMutability": "pure",
      "type": "function"
    },
    {
      "constant": true,
      "inputs": [],
      "name": "proofStorage_IPFS",
      "outputs": [
        {
          "name": "",
          "type": "bytes1"
        }
      ],
      "payable": false,
      "stateMutability": "pure",
      "type": "function"
    },
    {
      "constant": true,
      "inputs": [],
      "name": "OAR",
      "outputs": [
        {
          "name": "",
          "type": "OraclizeAddrResolverI"
        }
      ],
      "payable": false,
      "stateMutability": "view",
      "type": "function"
    },
    {
      "constant": true,
      "inputs": [],
      "name": "oraclize",
      "outputs": [
        {
          "name": "",
          "type": "OraclizeI"
        }
      ],
      "payable": false,
      "stateMutability": "view",
      "type": "function"
    },
    {
      "constant": true,
      "inputs": [],
      "name": "oraclize_setNetwork",
      "outputs": [
        {
          "name": "",
          "type": "OraclizeAddrResolverI"
        }
      ],
      "payable": false,
      "stateMutability": "view",
      "type": "function"
    },
    {
      "constant": true,
      "inputs": [
        {
          "name": "datasource",
          "type": "string"
        }
      ],
      "name": "oraclize_getPrice",
      "outputs": [
        {
          "name": "",
          "type": "uint256"
        }
      ],
      "payable": false,
      "stateMutability": "view",
      "type": "function"
    },
    {
      "constant": true,
      "inputs": [
        {
          "name": "datasource",
          "type": "string"
        },
        {
          "name": "gaslimit",
          "type": "uint256"
        }
      ],
      "name": "oraclize_getPrice",
      "outputs": [
        {
          "name": "",
          "type": "uint256"
        }
      ],
      "payable": false,
      "stateMutability": "view",
      "type": "function"
    },
    {
      "constant": false,
      "inputs": [
        {
          "name": "datasource",
          "type": "string"
        },
        {
          "name": "arg1",
          "type": "string"
        },
        {
          "name": "arg2",
          "type": "string"
        }
      ],
      "name": "oraclize_query",
      "outputs": [
        {
          "name": "id",
          "type": "bytes32"
        }
      ],
      "payable": false,
      "stateMutability": "nonpayable",
      "type": "function"
    },
    {
      "constant": false,
      "inputs": [
        {
          "name": "datasource",
          "type": "string"
        },
        {
          "name": "arg",
          "type": "string"
        }
      ],
      "name": "oraclize_query",
      "outputs": [
        {
          "name": "id",
          "type": "bytes32"
        }
      ],
      "payable": false,
      "stateMutability": "nonpayable",
      "type": "function"
    },
    {
      "constant": false,
      "inputs": [
        {
          "name": "timestamp",
          "type": "uint256"
        },
        {
          "name": "datasource",
          "type": "string"
        },
        {
          "name": "arg1",
          "type": "string"
        },
        {
          "name": "arg2",
          "type": "string"
        },
        {
          "name": "gaslimit",
          "type": "uint256"
        }
      ],
      "name": "oraclize_query",
      "outputs": [
        {
          "name": "id",
          "type": "bytes32"
        }
      ],
      "payable": false,
      "stateMutability": "nonpayable",
      "type": "function"
    },
    {
      "constant": false,
      "inputs": [
        {
          "name": "datasource",
          "type": "string"
        },
        {
          "name": "arg1",
          "type": "string"
        },
        {
          "name": "arg2",
          "type": "string"
        },
        {
          "name": "gaslimit",
          "type": "uint256"
        }
      ],
      "name": "oraclize_query",
      "outputs": [
        {
          "name": "id",
          "type": "bytes32"
        }
      ],
      "payable": false,
      "stateMutability": "nonpayable",
      "type": "function"
    },
    {
      "constant": false,
      "inputs": [
        {
          "name": "timestamp",
          "type": "uint256"
        },
        {
          "name": "datasource",
          "type": "string"
        },
        {
          "name": "arg",
          "type": "string"
        },
        {
          "name": "gaslimit",
          "type": "uint256"
        }
      ],
      "name": "oraclize_query",
      "outputs": [
        {
          "name": "id",
          "type": "bytes32"
        }
      ],
      "payable": false,
      "stateMutability": "nonpayable",
      "type": "function"
    },
    {
      "constant": false,
      "inputs": [
        {
          "name": "timestamp",
          "type": "uint256"
        },
        {
          "name": "datasource",
          "type": "string"
        },
        {
          "name": "arg1",
          "type": "string"
        },
        {
          "name": "arg2",
          "type": "string"
        }
      ],
      "name": "oraclize_query",
      "outputs": [
        {
          "name": "id",
          "type": "bytes32"
        }
      ],
      "payable": false,
      "stateMutability": "nonpayable",
      "type": "function"
    },
    {
      "constant": false,
      "inputs": [
        {
          "name": "datasource",
          "type": "string"
        },
        {
          "name": "arg",
          "type": "string"
        },
        {
          "name": "gaslimit",
          "type": "uint256"
        }
      ],
      "name": "oraclize_query",
      "outputs": [
        {
          "name": "id",
          "type": "bytes32"
        }
      ],
      "payable": false,
      "stateMutability": "nonpayable",
      "type": "function"
    },
    {
      "constant": false,
      "inputs": [
        {
          "name": "timestamp",
          "type": "uint256"
        },
        {
          "name": "datasource",
          "type": "string"
        },
        {
          "name": "arg",
          "type": "string"
        }
      ],
      "name": "oraclize_query",
      "outputs": [
        {
          "name": "id",
          "type": "bytes32"
        }
      ],
      "payable": false,
      "stateMutability": "nonpayable",
      "type": "function"
    },
    {
      "constant": true,
      "inputs": [],
      "name": "oraclize_cbAddress",
      "outputs": [
        {
          "name": "",
          "type": "address"
        }
      ],
      "payable": false,
      "stateMutability": "view",
      "type": "function"
    },
    {
      "constant": false,
      "inputs": [
        {
          "name": "proofP",
          "type": "bytes1"
        }
      ],
      "name": "oraclize_setProof",
      "outputs": [],
      "payable": false,
      "stateMutability": "nonpayable",
      "type": "function"
    },
    {
      "constant": false,
      "inputs": [
        {
          "name": "gasPrice",
          "type": "uint256"
        }
      ],
      "name": "oraclize_setCustomGasPrice",
      "outputs": [],
      "payable": false,
      "stateMutability": "nonpayable",
      "type": "function"
    },
    {
      "constant": true,
      "inputs": [
        {
          "name": "_addr",
          "type": "address"
        }
      ],
      "name": "getCodeSize",
      "outputs": [
        {
          "name": "_size",
          "type": "uint256"
        }
      ],
      "payable": false,
      "stateMutability": "view",
      "type": "function"
    },
    {
      "constant": true,
      "inputs": [
        {
          "name": "_a",
          "type": "string"
        }
      ],
      "name": "parseAddr",
      "outputs": [
        {
          "name": "",
          "type": "address"
        }
      ],
      "payable": false,
      "stateMutability": "pure",
      "type": "function"
    },
    {
      "constant": true,
      "inputs": [
        {
          "name": "_a",
          "type": "string"
        },
        {
          "name": "_b",
          "type": "string"
        }
      ],
      "name": "strCompare",
      "outputs": [
        {
          "name": "",
          "type": "int256"
        }
      ],
      "payable": false,
      "stateMutability": "pure",
      "type": "function"
    },
    {
      "constant": true,
      "inputs": [
        {
          "name": "_haystack",
          "type": "string"
        },
        {
          "name": "_needle",
          "type": "string"
        }
      ],
      "name": "indexOf",
      "outputs": [
        {
          "name": "",
          "type": "int256"
        }
      ],
      "payable": false,
      "stateMutability": "pure",
      "type": "function"
    },
    {
      "constant": true,
      "inputs": [
        {
          "name": "_a",
          "type": "string"
        },
        {
          "name": "_b",
          "type": "uint256"
        }
      ],
      "name": "parseInt",
      "outputs": [
        {
          "name": "",
          "type": "uint256"
        }
      ],
      "payable": false,
      "stateMutability": "pure",
      "type": "function"
    },
    {
      "constant": true,
      "inputs": [
        {
          "name": "_a",
          "type": "string"
        }
      ],
      "name": "parseInt",
      "outputs": [
        {
          "name": "",
          "type": "uint256"
        }
      ],
      "payable": false,
      "stateMutability": "pure",
      "type": "function"
    }
  ],
  "bytecode": "0x613213610030600b82828239805160001a6073146000811461002057610022565bfe5b5030600052607381538281f3007300000000000000000000000000000000000000003014608060405260043610610181576000357c0100000000000000000000000000000000000000000000000000000000900463ffffffff1680630109596214610186578063053c351b146101b3578063056e1059146102235780632c85f8e014610302578063346b306a1461041d5780633d9aa9321461052e57806342346c5e146105785780634315f545146105e8578063489306eb1461064a5780635731f3571461071557806365a4dfb3146108305780637975c56e146109555780637cbbf1da14610a2a5780637d320ef814610a8c5780638a0807b714610aee5780639dcf56b414610ba4578063a682318914610c06578063abe9f56914610ca2578063ae152cf414610d1c578063b51c4f9614610df1578063bcf175c814610e3b578063bf4d89b514610e85578063c00d530514610eff578063c90c589a14610f49578063ce6a9bd614610f93578063d7c26adb14610ff5578063e864165214611044578063f0c001df146110fa575b600080fd5b81801561019257600080fd5b506101b16004803603810190808035906020019092919050505061115c565b005b61020d600480360381019080803590602001908201803590602001908080601f01602080910402602001604051908101604052809392919081815260200183838082843782019150505050505091929192905050506111ed565b6040518082815260200191505060405180910390f35b81801561022f57600080fd5b506102e460048036038101908080359060200190929190803590602001908201803590602001908080601f0160208091040260200160405190810160405280939291908181526020018383808284378201915050505050509192919290803590602001908201803590602001908080601f01602080910402602001604051908101604052809392919081815260200183838082843782019150505050505091929192908035906020019092919050505061130c565b60405180826000191660001916815260200191505060405180910390f35b81801561030e57600080fd5b506103ff600480360381019080803590602001908201803590602001908080601f0160208091040260200160405190810160405280939291908181526020018383808284378201915050505050509192919290803590602001908201803590602001908080601f0160208091040260200160405190810160405280939291908181526020018383808284378201915050505050509192919290803590602001908201803590602001908080601f0160208091040260200160405190810160405280939291908181526020018383808284378201915050505050509192919290803590602001909291905050506115ee565b60405180826000191660001916815260200191505060405180910390f35b81801561042957600080fd5b50610510600480360381019080803590602001908201803590602001908080601f0160208091040260200160405190810160405280939291908181526020018383808284378201915050505050509192919290803590602001908201803590602001908080601f0160208091040260200160405190810160405280939291908181526020018383808284378201915050505050509192919290803590602001908201803590602001908080601f0160208091040260200160405190810160405280939291908181526020018383808284378201915050505050509192919290505050611608565b60405180826000191660001916815260200191505060405180910390f35b610536611620565b604051808273ffffffffffffffffffffffffffffffffffffffff1673ffffffffffffffffffffffffffffffffffffffff16815260200191505060405180910390f35b6105d2600480360381019080803590602001908201803590602001908080601f01602080910402602001604051908101604052809392919081815260200183838082843782019150505050505091929192905050506116cd565b6040518082815260200191505060405180910390f35b6105f06116e1565b60405180827effffffffffffffffffffffffffffffffffffffffffffffffffffffffffffff19167effffffffffffffffffffffffffffffffffffffffffffffffffffffffffffff1916815260200191505060405180910390f35b81801561065657600080fd5b506106f7600480360381019080803590602001908201803590602001908080601f0160208091040260200160405190810160405280939291908181526020018383808284378201915050505050509192919290803590602001908201803590602001908080601f016020809104026020016040519081016040528093929190818152602001838380828437820191505050505050919291929050505061170b565b60405180826000191660001916815260200191505060405180910390f35b81801561072157600080fd5b5061081260048036038101908080359060200190929190803590602001908201803590602001908080601f0160208091040260200160405190810160405280939291908181526020018383808284378201915050505050509192919290803590602001908201803590602001908080601f0160208091040260200160405190810160405280939291908181526020018383808284378201915050505050509192919290803590602001908201803590602001908080601f0160208091040260200160405190810160405280939291908181526020018383808284378201915050505050509192919290505050611721565b60405180826000191660001916815260200191505060405180910390f35b81801561083c57600080fd5b5061093760048036038101908080359060200190929190803590602001908201803590602001908080601f0160208091040260200160405190810160405280939291908181526020018383808284378201915050505050509192919290803590602001908201803590602001908080601f0160208091040260200160405190810160405280939291908181526020018383808284378201915050505050509192919290803590602001908201803590602001908080601f016020809104026020016040519081016040528093929190818152602001838380828437820191505050505050919291929080359060200190929190505050611a63565b60405180826000191660001916815260200191505060405180910390f35b81801561096157600080fd5b50610a0c60048036038101908080359060200190929190803590602001908201803590602001908080601f0160208091040260200160405190810160405280939291908181526020018383808284378201915050505050509192919290803590602001908201803590602001908080601f0160208091040260200160405190810160405280939291908181526020018383808284378201915050505050509192919290505050611db3565b60405180826000191660001916815260200191505060405180910390f35b610a32612087565b60405180827effffffffffffffffffffffffffffffffffffffffffffffffffffffffffffff19167effffffffffffffffffffffffffffffffffffffffffffffffffffffffffffff1916815260200191505060405180910390f35b610a946120b2565b60405180827effffffffffffffffffffffffffffffffffffffffffffffffffffffffffffff19167effffffffffffffffffffffffffffffffffffffffffffffffffffffffffffff1916815260200191505060405180910390f35b610b8e600480360381019080803590602001908201803590602001908080601f0160208091040260200160405190810160405280939291908181526020018383808284378201915050505050509192919290803590602001908201803590602001908080601f01602080910402602001604051908101604052809392919081815260200183838082843782019150505050505091929192905050506120dd565b6040518082815260200191505060405180910390f35b610bac6123fc565b60405180827effffffffffffffffffffffffffffffffffffffffffffffffffffffffffffff19167effffffffffffffffffffffffffffffffffffffffffffffffffffffffffffff1916815260200191505060405180910390f35b610c60600480360381019080803590602001908201803590602001908080601f0160208091040260200160405190810160405280939291908181526020018383808284378201915050505050509192919290505050612427565b604051808273ffffffffffffffffffffffffffffffffffffffff1673ffffffffffffffffffffffffffffffffffffffff16815260200191505060405180910390f35b610d06600480360381019080803590602001908201803590602001908080601f01602080910402602001604051908101604052809392919081815260200183838082843782019150505050505091929192908035906020019092919050505061273e565b6040518082815260200191505060405180910390f35b818015610d2857600080fd5b50610dd3600480360381019080803590602001908201803590602001908080601f0160208091040260200160405190810160405280939291908181526020018383808284378201915050505050509192919290803590602001908201803590602001908080601f016020809104026020016040519081016040528093929190818152602001838380828437820191505050505050919291929080359060200190929190505050612866565b60405180826000191660001916815260200191505060405180910390f35b610e25600480360381019080803573ffffffffffffffffffffffffffffffffffffffff16906020019092919050505061287e565b6040518082815260200191505060405180910390f35b610e43612889565b604051808273ffffffffffffffffffffffffffffffffffffffff1673ffffffffffffffffffffffffffffffffffffffff16815260200191505060405180910390f35b610ee9600480360381019080803590602001908201803590602001908080601f016020809104026020016040519081016040528093929190818152602001838380828437820191505050505050919291929080359060200190929190505050612936565b6040518082815260200191505060405180910390f35b610f07612c2a565b604051808273ffffffffffffffffffffffffffffffffffffffff1673ffffffffffffffffffffffffffffffffffffffff16815260200191505060405180910390f35b610f51612df6565b604051808273ffffffffffffffffffffffffffffffffffffffff1673ffffffffffffffffffffffffffffffffffffffff16815260200191505060405180910390f35b610f9b612e05565b60405180827effffffffffffffffffffffffffffffffffffffffffffffffffffffffffffff19167effffffffffffffffffffffffffffffffffffffffffffffffffffffffffffff1916815260200191505060405180910390f35b81801561100157600080fd5b5061104260048036038101908080357effffffffffffffffffffffffffffffffffffffffffffffffffffffffffffff19169060200190929190505050612e30565b005b6110e4600480360381019080803590602001908201803590602001908080601f0160208091040260200160405190810160405280939291908181526020018383808284378201915050505050509192919290803590602001908201803590602001908080601f0160208091040260200160405190810160405280939291908181526020018383808284378201915050505050509192919290505050612f05565b6040518082815260200191505060405180910390f35b6111026131bc565b60405180827effffffffffffffffffffffffffffffffffffffffffffffffffffffffffffff19167effffffffffffffffffffffffffffffffffffffffffffffffffffffffffffff1916815260200191505060405180910390f35b611164611620565b73ffffffffffffffffffffffffffffffffffffffff1663ca6ad1e4826040518263ffffffff167c010000000000000000000000000000000000000000000000000000000002815260040180828152602001915050600060405180830381600087803b1580156111d257600080fd5b505af11580156111e6573d6000803e3d6000fd5b5050505050565b60006111f7611620565b73ffffffffffffffffffffffffffffffffffffffff1663524f3889836040518263ffffffff167c01000000000000000000000000000000000000000000000000000000000281526004018080602001828103825283818151815260200191508051906020019080838360005b8381101561127e578082015181840152602081019050611263565b50505050905090810190601f1680156112ab5780820380516001836020036101000a031916815260200191505b5092505050602060405180830381600087803b1580156112ca57600080fd5b505af11580156112de573d6000803e3d6000fd5b505050506040513d60208110156112f457600080fd5b81019080805190602001909291905050509050919050565b6000806000611319611620565b91508173ffffffffffffffffffffffffffffffffffffffff16632ef3accc87866040518363ffffffff167c01000000000000000000000000000000000000000000000000000000000281526004018080602001838152602001828103825284818151815260200191508051906020019080838360005b838110156113aa57808201518184015260208101905061138f565b50505050905090810190601f1680156113d75780820380516001836020036101000a031916815260200191505b509350505050602060405180830381600087803b1580156113f757600080fd5b505af115801561140b573d6000803e3d6000fd5b505050506040513d602081101561142157600080fd5b81019080805190602001909291905050509050833a02670de0b6b3a76400000181111561145457600060010292506115e4565b8173ffffffffffffffffffffffffffffffffffffffff1663c51be90f82898989896040518663ffffffff167c0100000000000000000000000000000000000000000000000000000000028152600401808581526020018060200180602001848152602001838103835286818151815260200191508051906020019080838360005b838110156114f05780820151818401526020810190506114d5565b50505050905090810190601f16801561151d5780820380516001836020036101000a031916815260200191505b50838103825285818151815260200191508051906020019080838360005b8381101561155657808201518184015260208101905061153b565b50505050905090810190601f1680156115835780820380516001836020036101000a031916815260200191505b5096505050505050506020604051808303818588803b1580156115a557600080fd5b505af11580156115b9573d6000803e3d6000fd5b50505050506040513d60208110156115d057600080fd5b810190808051906020019092919050505092505b5050949350505050565b60006115fe600086868686611a63565b9050949350505050565b60006116176000858585611721565b90509392505050565b600061162a612df6565b73ffffffffffffffffffffffffffffffffffffffff166338cc48316040518163ffffffff167c0100000000000000000000000000000000000000000000000000000000028152600401602060405180830381600087803b15801561168d57600080fd5b505af11580156116a1573d6000803e3d6000fd5b505050506040513d60208110156116b757600080fd5b8101908080519060200190929190505050905090565b60006116da826000612936565b9050919050565b6000807f010000000000000000000000000000000000000000000000000000000000000002905090565b600061171960008484611db3565b905092915050565b600080600061172e611620565b91508173ffffffffffffffffffffffffffffffffffffffff1663524f3889876040518263ffffffff167c01000000000000000000000000000000000000000000000000000000000281526004018080602001828103825283818151815260200191508051906020019080838360005b838110156117b857808201518184015260208101905061179d565b50505050905090810190601f1680156117e55780820380516001836020036101000a031916815260200191505b5092505050602060405180830381600087803b15801561180457600080fd5b505af1158015611818573d6000803e3d6000fd5b505050506040513d602081101561182e57600080fd5b8101908080519060200190929190505050905062030d403a02670de0b6b3a7640000018111156118645760006001029250611a59565b8173ffffffffffffffffffffffffffffffffffffffff16637722865982898989896040518663ffffffff167c010000000000000000000000000000000000000000000000000000000002815260040180858152602001806020018060200180602001848103845287818151815260200191508051906020019080838360005b838110156118fe5780820151818401526020810190506118e3565b50505050905090810190601f16801561192b5780820380516001836020036101000a031916815260200191505b50848103835286818151815260200191508051906020019080838360005b83811015611964578082015181840152602081019050611949565b50505050905090810190601f1680156119915780820380516001836020036101000a031916815260200191505b50848103825285818151815260200191508051906020019080838360005b838110156119ca5780820151818401526020810190506119af565b50505050905090810190601f1680156119f75780820380516001836020036101000a031916815260200191505b509750505050505050506020604051808303818588803b158015611a1a57600080fd5b505af1158015611a2e573d6000803e3d6000fd5b50505050506040513d6020811015611a4557600080fd5b810190808051906020019092919050505092505b5050949350505050565b6000806000611a70611620565b91508173ffffffffffffffffffffffffffffffffffffffff16632ef3accc88866040518363ffffffff167c01000000000000000000000000000000000000000000000000000000000281526004018080602001838152602001828103825284818151815260200191508051906020019080838360005b83811015611b01578082015181840152602081019050611ae6565b50505050905090810190601f168015611b2e5780820380516001836020036101000a031916815260200191505b509350505050602060405180830381600087803b158015611b4e57600080fd5b505af1158015611b62573d6000803e3d6000fd5b505050506040513d6020811015611b7857600080fd5b81019080805190602001909291905050509050833a02670de0b6b3a764000001811115611bab5760006001029250611da8565b8173ffffffffffffffffffffffffffffffffffffffff166385dee34c828a8a8a8a8a6040518763ffffffff167c010000000000000000000000000000000000000000000000000000000002815260040180868152602001806020018060200180602001858152602001848103845288818151815260200191508051906020019080838360005b83811015611c4c578082015181840152602081019050611c31565b50505050905090810190601f168015611c795780820380516001836020036101000a031916815260200191505b50848103835287818151815260200191508051906020019080838360005b83811015611cb2578082015181840152602081019050611c97565b50505050905090810190601f168015611cdf5780820380516001836020036101000a031916815260200191505b50848103825286818151815260200191508051906020019080838360005b83811015611d18578082015181840152602081019050611cfd565b50505050905090810190601f168015611d455780820380516001836020036101000a031916815260200191505b50985050505050505050506020604051808303818588803b158015611d6957600080fd5b505af1158015611d7d573d6000803e3d6000fd5b50505050506040513d6020811015611d9457600080fd5b810190808051906020019092919050505092505b505095945050505050565b6000806000611dc0611620565b91508173ffffffffffffffffffffffffffffffffffffffff1663524f3889866040518263ffffffff167c01000000000000000000000000000000000000000000000000000000000281526004018080602001828103825283818151815260200191508051906020019080838360005b83811015611e4a578082015181840152602081019050611e2f565b50505050905090810190601f168015611e775780820380516001836020036101000a031916815260200191505b5092505050602060405180830381600087803b158015611e9657600080fd5b505af1158015611eaa573d6000803e3d6000fd5b505050506040513d6020811015611ec057600080fd5b8101908080519060200190929190505050905062030d403a02670de0b6b3a764000001811115611ef6576000600102925061207e565b8173ffffffffffffffffffffffffffffffffffffffff1663adf59f99828888886040518563ffffffff167c0100000000000000000000000000000000000000000000000000000000028152600401808481526020018060200180602001838103835285818151815260200191508051906020019080838360005b83811015611f8b578082015181840152602081019050611f70565b50505050905090810190601f168015611fb85780820380516001836020036101000a031916815260200191505b50838103825284818151815260200191508051906020019080838360005b83811015611ff1578082015181840152602081019050611fd6565b50505050905090810190601f16801561201e5780820380516001836020036101000a031916815260200191505b50955050505050506020604051808303818588803b15801561203f57600080fd5b505af1158015612053573d6000803e3d6000fd5b50505050506040513d602081101561206a57600080fd5b810190808051906020019092919050505092505b50509392505050565b600060f07f010000000000000000000000000000000000000000000000000000000000000002905090565b600060017f010000000000000000000000000000000000000000000000000000000000000002905090565b60006060806000808693508592506001845110806120fc575060018351105b80612108575083518351115b15612135577fffffffffffffffffffffffffffffffffffffffffffffffffffffffffffffffff94506123f2565b6fffffffffffffffffffffffffffffffff84511115612176577fffffffffffffffffffffffffffffffffffffffffffffffffffffffffffffffff94506123f2565b60009150600090505b83518110156123ce5782600081518110151561219757fe5b9060200101517f010000000000000000000000000000000000000000000000000000000000000090047f0100000000000000000000000000000000000000000000000000000000000000027effffffffffffffffffffffffffffffffffffffffffffffffffffffffffffff1916848281518110151561221257fe5b9060200101517f010000000000000000000000000000000000000000000000000000000000000090047f0100000000000000000000000000000000000000000000000000000000000000027effffffffffffffffffffffffffffffffffffffffffffffffffffffffffffff191614156123c157600191505b82518210801561229c57508351828201105b801561239d575082828151811015156122b157fe5b9060200101517f010000000000000000000000000000000000000000000000000000000000000090047f0100000000000000000000000000000000000000000000000000000000000000027effffffffffffffffffffffffffffffffffffffffffffffffffffffffffffff19168483830181518110151561232e57fe5b9060200101517f010000000000000000000000000000000000000000000000000000000000000090047f0100000000000000000000000000000000000000000000000000000000000000027effffffffffffffffffffffffffffffffffffffffffffffffffffffffffffff1916145b156123af57818060010192505061228a565b82518214156123c0578094506123f2565b5b808060010191505061217f565b7fffffffffffffffffffffffffffffffffffffffffffffffffffffffffffffffff94505b5050505092915050565b600060107f010000000000000000000000000000000000000000000000000000000000000002905090565b6000606060008060008086945060009350600290505b602a8110156127315761010084029350848181518110151561245b57fe5b9060200101517f010000000000000000000000000000000000000000000000000000000000000090047f0100000000000000000000000000000000000000000000000000000000000000027f01000000000000000000000000000000000000000000000000000000000000009004925084600182018151811015156124dc57fe5b9060200101517f010000000000000000000000000000000000000000000000000000000000000090047f0100000000000000000000000000000000000000000000000000000000000000027f01000000000000000000000000000000000000000000000000000000000000009004915060618373ffffffffffffffffffffffffffffffffffffffff161015801561258a575060668373ffffffffffffffffffffffffffffffffffffffff1611155b1561259a57605783039250612634565b60418373ffffffffffffffffffffffffffffffffffffffff16101580156125d8575060468373ffffffffffffffffffffffffffffffffffffffff1611155b156125e857603783039250612633565b60308373ffffffffffffffffffffffffffffffffffffffff1610158015612626575060398373ffffffffffffffffffffffffffffffffffffffff1611155b15612632576030830392505b5b5b60618273ffffffffffffffffffffffffffffffffffffffff1610158015612672575060668273ffffffffffffffffffffffffffffffffffffffff1611155b156126825760578203915061271c565b60418273ffffffffffffffffffffffffffffffffffffffff16101580156126c0575060468273ffffffffffffffffffffffffffffffffffffffff1611155b156126d05760378203915061271b565b60308273ffffffffffffffffffffffffffffffffffffffff161015801561270e575060398273ffffffffffffffffffffffffffffffffffffffff1611155b1561271a576030820391505b5b5b8160108402018401935060028101905061243d565b8395505050505050919050565b6000612748611620565b73ffffffffffffffffffffffffffffffffffffffff16632ef3accc84846040518363ffffffff167c01000000000000000000000000000000000000000000000000000000000281526004018080602001838152602001828103825284818151815260200191508051906020019080838360005b838110156127d65780820151818401526020810190506127bb565b50505050905090810190601f1680156128035780820380516001836020036101000a031916815260200191505b509350505050602060405180830381600087803b15801561282357600080fd5b505af1158015612837573d6000803e3d6000fd5b505050506040513d602081101561284d57600080fd5b8101908080519060200190929190505050905092915050565b6000612875600085858561130c565b90509392505050565b6000813b9050919050565b6000612893611620565b73ffffffffffffffffffffffffffffffffffffffff1663c281d19e6040518163ffffffff167c0100000000000000000000000000000000000000000000000000000000028152600401602060405180830381600087803b1580156128f657600080fd5b505af115801561290a573d6000803e3d6000fd5b505050506040513d602081101561292057600080fd5b8101908080519060200190929190505050905090565b6000606060008060008693506000925060009150600090505b8351811015612c0b5760307f010000000000000000000000000000000000000000000000000000000000000002848281518110151561298a57fe5b9060200101517f010000000000000000000000000000000000000000000000000000000000000090047f0100000000000000000000000000000000000000000000000000000000000000027effffffffffffffffffffffffffffffffffffffffffffffffffffffffffffff191610158015612aa2575060397f0100000000000000000000000000000000000000000000000000000000000000028482815181101515612a3257fe5b9060200101517f010000000000000000000000000000000000000000000000000000000000000090047f0100000000000000000000000000000000000000000000000000000000000000027effffffffffffffffffffffffffffffffffffffffffffffffffffffffffffff191611155b15612b53578115612ac5576000861415612abb57612c0b565b8580600190039650505b600a8302925060308482815181101515612adb57fe5b9060200101517f010000000000000000000000000000000000000000000000000000000000000090047f0100000000000000000000000000000000000000000000000000000000000000027f010000000000000000000000000000000000000000000000000000000000000090040383019250612bfe565b602e7f0100000000000000000000000000000000000000000000000000000000000000028482815181101515612b8557fe5b9060200101517f010000000000000000000000000000000000000000000000000000000000000090047f0100000000000000000000000000000000000000000000000000000000000000027effffffffffffffffffffffffffffffffffffffffffffffffffffffffffffff19161415612bfd57600191505b5b808060010191505061294f565b6000861115612c1d5785600a0a830292505b8294505050505092915050565b600080612c4a731d3b2638a7cc9f2cb3d298a3da7a90b67e5506ed61287e565b1115612c6c57731d3b2638a7cc9f2cb3d298a3da7a90b67e5506ed9050612df3565b6000612c8b73c03a2615d5efaf5f49f60b7bb6583eaec212fdf161287e565b1115612cad5773c03a2615d5efaf5f49f60b7bb6583eaec212fdf19050612df3565b6000612ccc73b7a07bcf2ba2f2703b24c0691b5278999c59ac7e61287e565b1115612cee5773b7a07bcf2ba2f2703b24c0691b5278999c59ac7e9050612df3565b6000612d0d73146500cfd35b22e4a392fe0adc06de1a1368ed4861287e565b1115612d2f5773146500cfd35b22e4a392fe0adc06de1a1368ed489050612df3565b6000612d4e736f485c8bf6fc43ea212e93bbf8ce046c7f1cb47561287e565b1115612d7057736f485c8bf6fc43ea212e93bbf8ce046c7f1cb4759050612df3565b6000612d8f7320e12a1f859b3feae5fb2a0a32c18f5a65555bbf61287e565b1115612db1577320e12a1f859b3feae5fb2a0a32c18f5a65555bbf9050612df3565b6000612dd07351efaf4c8b3c9afbd5ab9f4bbc82784ab6ef8faa61287e565b1115612df2577351efaf4c8b3c9afbd5ab9f4bbc82784ab6ef8faa9050612df3565b5b90565b6000612e00612c2a565b905090565b600060307f010000000000000000000000000000000000000000000000000000000000000002905090565b612e38611620565b73ffffffffffffffffffffffffffffffffffffffff1663688dcfd7826040518263ffffffff167c010000000000000000000000000000000000000000000000000000000002815260040180827effffffffffffffffffffffffffffffffffffffffffffffffffffffffffffff19167effffffffffffffffffffffffffffffffffffffffffffffffffffffffffffff19168152602001915050600060405180830381600087803b158015612eea57600080fd5b505af1158015612efe573d6000803e3d6000fd5b5050505050565b6000606080600080869350859250835191508183511015612f2557825191505b600090505b81811015613168578281815181101515612f4057fe5b9060200101517f010000000000000000000000000000000000000000000000000000000000000090047f0100000000000000000000000000000000000000000000000000000000000000027effffffffffffffffffffffffffffffffffffffffffffffffffffffffffffff19168482815181101515612fbb57fe5b9060200101517f010000000000000000000000000000000000000000000000000000000000000090047f0100000000000000000000000000000000000000000000000000000000000000027effffffffffffffffffffffffffffffffffffffffffffffffffffffffffffff19161015613056577fffffffffffffffffffffffffffffffffffffffffffffffffffffffffffffffff94506131b2565b828181518110151561306457fe5b9060200101517f010000000000000000000000000000000000000000000000000000000000000090047f0100000000000000000000000000000000000000000000000000000000000000027effffffffffffffffffffffffffffffffffffffffffffffffffffffffffffff191684828151811015156130df57fe5b9060200101517f010000000000000000000000000000000000000000000000000000000000000090047f0100000000000000000000000000000000000000000000000000000000000000027effffffffffffffffffffffffffffffffffffffffffffffffffffffffffffff1916111561315b57600194506131b2565b8080600101915050612f2a565b82518451101561319a577fffffffffffffffffffffffffffffffffffffffffffffffffffffffffffffffff94506131b2565b8251845111156131ad57600194506131b2565b600094505b5050505092915050565b600060407f0100000000000000000000000000000000000000000000000000000000000000029050905600a165627a7a72305820d0792a053a4ab37edd33113451ab6a9a9aa9c4dc8f8897858c6c9723385a039c0029",
  "source": "// <ORACLIZE_API_LIB>\n/*\nCopyright (c) 2015-2016 Oraclize SRL\nCopyright (c) 2016 Oraclize LTD\n\n\n\nPermission is hereby granted, free of charge, to any person obtaining a copy\nof this software and associated documentation files (the \"Software\"), to deal\nin the Software without restriction, including without limitation the rights\nto use, copy, modify, merge, publish, distribute, sublicense, and/or sell\ncopies of the Software, and to permit persons to whom the Software is\nfurnished to do so, subject to the following conditions:\n\n\n\nThe above copyright notice and this permission notice shall be included in\nall copies or substantial portions of the Software.\n\n\n\nTHE SOFTWARE IS PROVIDED \"AS IS\", WITHOUT WARRANTY OF ANY KIND, EXPRESS OR\nIMPLIED, INCLUDING BUT NOT LIMITED TO THE WARRANTIES OF MERCHANTABILITY,\nFITNESS FOR A PARTICULAR PURPOSE AND NONINFRINGEMENT.  IN NO EVENT SHALL THE\nAUTHORS OR COPYRIGHT HOLDERS BE LIABLE FOR ANY CLAIM, DAMAGES OR OTHER\nLIABILITY, WHETHER IN AN ACTION OF CONTRACT, TORT OR OTHERWISE, ARISING FROM,\nOUT OF OR IN CONNECTION WITH THE SOFTWARE OR THE USE OR OTHER DEALINGS IN\nTHE SOFTWARE.\n*/\n\npragma solidity ^0.4.19;// Incompatible compiler version... please select one stated within pragma solidity or use different oraclizeAPI version\n\ncontract OraclizeI {\n    address public cbAddress;\n    function query(uint _timestamp, string _datasource, string _arg) external payable returns (bytes32 _id);\n    function query_withGasLimit(uint _timestamp, string _datasource, string _arg, uint _gaslimit) external payable returns (bytes32 _id);\n    function query2(uint _timestamp, string _datasource, string _arg1, string _arg2) public payable returns (bytes32 _id);\n    function query2_withGasLimit(uint _timestamp, string _datasource, string _arg1, string _arg2, uint _gaslimit) external payable returns (bytes32 _id);\n    function queryN(uint _timestamp, string _datasource, bytes _argN) public payable returns (bytes32 _id);\n    function queryN_withGasLimit(uint _timestamp, string _datasource, bytes _argN, uint _gaslimit) external payable returns (bytes32 _id);\n    function getPrice(string _datasource) public view returns (uint _dsprice);\n    function getPrice(string _datasource, uint gaslimit) public view returns (uint _dsprice);\n    function setProofType(byte _proofType) external;\n    function setCustomGasPrice(uint _gasPrice) external;\n    function randomDS_getSessionPubKeyHash() external view returns(bytes32);\n}\n\ncontract OraclizeAddrResolverI {\n    function getAddress() public view returns (address _addr);\n}\n\n/*\nBegin solidity-cborutils\n\nhttps://github.com/smartcontractkit/solidity-cborutils\n\nMIT License\n\nCopyright (c) 2018 SmartContract ChainLink, Ltd.\n\nPermission is hereby granted, free of charge, to any person obtaining a copy\nof this software and associated documentation files (the \"Software\"), to deal\nin the Software without restriction, including without limitation the rights\nto use, copy, modify, merge, publish, distribute, sublicense, and/or sell\ncopies of the Software, and to permit persons to whom the Software is\nfurnished to do so, subject to the following conditions:\n\nThe above copyright notice and this permission notice shall be included in all\ncopies or substantial portions of the Software.\n\nTHE SOFTWARE IS PROVIDED \"AS IS\", WITHOUT WARRANTY OF ANY KIND, EXPRESS OR\nIMPLIED, INCLUDING BUT NOT LIMITED TO THE WARRANTIES OF MERCHANTABILITY,\nFITNESS FOR A PARTICULAR PURPOSE AND NONINFRINGEMENT. IN NO EVENT SHALL THE\nAUTHORS OR COPYRIGHT HOLDERS BE LIABLE FOR ANY CLAIM, DAMAGES OR OTHER\nLIABILITY, WHETHER IN AN ACTION OF CONTRACT, TORT OR OTHERWISE, ARISING FROM,\nOUT OF OR IN CONNECTION WITH THE SOFTWARE OR THE USE OR OTHER DEALINGS IN THE\nSOFTWARE.\n */\n\nlibrary Buffer {\n    struct buffer {\n        bytes buf;\n        uint capacity;\n    }\n\n    function init(buffer memory buf, uint capacity) internal pure {\n        if(capacity % 32 != 0) capacity += 32 - (capacity % 32);\n        // Allocate space for the buffer data\n        buf.capacity = capacity;\n        assembly {\n            let ptr := mload(0x40)\n            mstore(buf, ptr)\n            mstore(0x40, add(ptr, capacity))\n        }\n    }\n\n    function resize(buffer memory buf, uint capacity) private pure {\n        bytes memory oldbuf = buf.buf;\n        init(buf, capacity);\n        append(buf, oldbuf);\n    }\n\n    function max(uint a, uint b) private pure returns(uint) {\n        if(a > b) {\n            return a;\n        }\n        return b;\n    }\n\n    /**\n     * @dev Appends a byte array to the end of the buffer. Reverts if doing so\n     *      would exceed the capacity of the buffer.\n     * @param buf The buffer to append to.\n     * @param data The data to append.\n     * @return The original buffer.\n     */\n    function append(buffer memory buf, bytes data) internal pure returns(buffer memory) {\n        if(data.length + buf.buf.length > buf.capacity) {\n            resize(buf, max(buf.capacity, data.length) * 2);\n        }\n\n        uint dest;\n        uint src;\n        uint len = data.length;\n        assembly {\n            // Memory address of the buffer data\n            let bufptr := mload(buf)\n            // Length of existing buffer data\n            let buflen := mload(bufptr)\n            // Start address = buffer address + buffer length + sizeof(buffer length)\n            dest := add(add(bufptr, buflen), 32)\n            // Update buffer length\n            mstore(bufptr, add(buflen, mload(data)))\n            src := add(data, 32)\n        }\n\n        // Copy word-length chunks while possible\n        for(; len >= 32; len -= 32) {\n            assembly {\n                mstore(dest, mload(src))\n            }\n            dest += 32;\n            src += 32;\n        }\n\n        // Copy remaining bytes\n        uint mask = 256 ** (32 - len) - 1;\n        assembly {\n            let srcpart := and(mload(src), not(mask))\n            let destpart := and(mload(dest), mask)\n            mstore(dest, or(destpart, srcpart))\n        }\n\n        return buf;\n    }\n\n    /**\n     * @dev Appends a byte to the end of the buffer. Reverts if doing so would\n     * exceed the capacity of the buffer.\n     * @param buf The buffer to append to.\n     * @param data The data to append.\n     * @return The original buffer.\n     */\n    function append(buffer memory buf, uint8 data) internal pure {\n        if(buf.buf.length + 1 > buf.capacity) {\n            resize(buf, buf.capacity * 2);\n        }\n\n        assembly {\n            // Memory address of the buffer data\n            let bufptr := mload(buf)\n            // Length of existing buffer data\n            let buflen := mload(bufptr)\n            // Address = buffer address + buffer length + sizeof(buffer length)\n            let dest := add(add(bufptr, buflen), 32)\n            mstore8(dest, data)\n            // Update buffer length\n            mstore(bufptr, add(buflen, 1))\n        }\n    }\n\n    /**\n     * @dev Appends a byte to the end of the buffer. Reverts if doing so would\n     * exceed the capacity of the buffer.\n     * @param buf The buffer to append to.\n     * @param data The data to append.\n     * @return The original buffer.\n     */\n    function appendInt(buffer memory buf, uint data, uint len) internal pure returns(buffer memory) {\n        if(len + buf.buf.length > buf.capacity) {\n            resize(buf, max(buf.capacity, len) * 2);\n        }\n\n        uint mask = 256 ** len - 1;\n        assembly {\n            // Memory address of the buffer data\n            let bufptr := mload(buf)\n            // Length of existing buffer data\n            let buflen := mload(bufptr)\n            // Address = buffer address + buffer length + sizeof(buffer length) + len\n            let dest := add(add(bufptr, buflen), len)\n            mstore(dest, or(and(mload(dest), not(mask)), data))\n            // Update buffer length\n            mstore(bufptr, add(buflen, len))\n        }\n        return buf;\n    }\n}\n\nlibrary CBOR {\n    using Buffer for Buffer.buffer;\n\n    uint8 private constant MAJOR_TYPE_INT = 0;\n    uint8 private constant MAJOR_TYPE_NEGATIVE_INT = 1;\n    uint8 private constant MAJOR_TYPE_BYTES = 2;\n    uint8 private constant MAJOR_TYPE_STRING = 3;\n    uint8 private constant MAJOR_TYPE_ARRAY = 4;\n    uint8 private constant MAJOR_TYPE_MAP = 5;\n    uint8 private constant MAJOR_TYPE_CONTENT_FREE = 7;\n\n    function encodeType(Buffer.buffer memory buf, uint8 major, uint value) private pure {\n        if(value <= 23) {\n            buf.append(uint8((major << 5) | value));\n        } else if(value <= 0xFF) {\n            buf.append(uint8((major << 5) | 24));\n            buf.appendInt(value, 1);\n        } else if(value <= 0xFFFF) {\n            buf.append(uint8((major << 5) | 25));\n            buf.appendInt(value, 2);\n        } else if(value <= 0xFFFFFFFF) {\n            buf.append(uint8((major << 5) | 26));\n            buf.appendInt(value, 4);\n        } else if(value <= 0xFFFFFFFFFFFFFFFF) {\n            buf.append(uint8((major << 5) | 27));\n            buf.appendInt(value, 8);\n        }\n    }\n\n    function encodeIndefiniteLengthType(Buffer.buffer memory buf, uint8 major) private pure {\n        buf.append(uint8((major << 5) | 31));\n    }\n\n    function encodeUInt(Buffer.buffer memory buf, uint value) internal pure {\n        encodeType(buf, MAJOR_TYPE_INT, value);\n    }\n\n    function encodeInt(Buffer.buffer memory buf, int value) internal pure {\n        if(value >= 0) {\n            encodeType(buf, MAJOR_TYPE_INT, uint(value));\n        } else {\n            encodeType(buf, MAJOR_TYPE_NEGATIVE_INT, uint(-1 - value));\n        }\n    }\n\n    function encodeBytes(Buffer.buffer memory buf, bytes value) internal pure {\n        encodeType(buf, MAJOR_TYPE_BYTES, value.length);\n        buf.append(value);\n    }\n\n    function encodeString(Buffer.buffer memory buf, string value) internal pure {\n        encodeType(buf, MAJOR_TYPE_STRING, bytes(value).length);\n        buf.append(bytes(value));\n    }\n\n    function startArray(Buffer.buffer memory buf) internal pure {\n        encodeIndefiniteLengthType(buf, MAJOR_TYPE_ARRAY);\n    }\n\n    function startMap(Buffer.buffer memory buf) internal pure {\n        encodeIndefiniteLengthType(buf, MAJOR_TYPE_MAP);\n    }\n\n    function endSequence(Buffer.buffer memory buf) internal pure {\n        encodeIndefiniteLengthType(buf, MAJOR_TYPE_CONTENT_FREE);\n    }\n}\n\n/*\nEnd solidity-cborutils\n */\n\nlibrary oraclizeLib {\n\n    function proofType_NONE()\n    public\n    pure\n    returns (byte) {\n        return 0x00;\n    }\n\n    function proofType_TLSNotary()\n    public\n    pure\n    returns (byte) {\n        return 0x10;\n    }\n\n    function proofType_Android()\n    public\n    pure\n    returns (byte) {\n        return 0x40;\n    }\n\n    function proofType_Ledger()\n    public\n    pure\n    returns (byte) {\n        return 0x30;\n    }\n\n    function proofType_Native()\n    public\n    pure\n    returns (byte) {\n        return 0xF0;\n    }\n\n    function proofStorage_IPFS()\n    public\n    pure\n    returns (byte) {\n        return 0x01;\n    }\n\n    //OraclizeAddrResolverI constant public OAR = oraclize_setNetwork();\n\n    function OAR()\n    public\n    view\n    returns (OraclizeAddrResolverI) {\n        return oraclize_setNetwork();\n    }\n\n    //OraclizeI constant public oraclize = OraclizeI(OAR.getAddress());\n\n    function oraclize()\n    public\n    view\n    returns (OraclizeI) {\n        return OraclizeI(OAR().getAddress());\n    }\n\n    function oraclize_setNetwork()\n    public\n    view\n    returns(OraclizeAddrResolverI){\n        if (getCodeSize(0x1d3B2638a7cC9f2CB3D298A3DA7a90B67E5506ed)>0){ //mainnet\n            return OraclizeAddrResolverI(0x1d3B2638a7cC9f2CB3D298A3DA7a90B67E5506ed);\n        }\n        if (getCodeSize(0xc03A2615D5efaf5F49F60B7BB6583eaec212fdf1)>0){ //ropsten testnet\n            return OraclizeAddrResolverI(0xc03A2615D5efaf5F49F60B7BB6583eaec212fdf1);\n        }\n        if (getCodeSize(0xB7A07BcF2Ba2f2703b24C0691b5278999C59AC7e)>0){ //kovan testnet\n            return OraclizeAddrResolverI(0xB7A07BcF2Ba2f2703b24C0691b5278999C59AC7e);\n        }\n        if (getCodeSize(0x146500cfd35B22E4A392Fe0aDc06De1a1368Ed48)>0){ //rinkeby testnet\n            return OraclizeAddrResolverI(0x146500cfd35B22E4A392Fe0aDc06De1a1368Ed48);\n        }\n        if (getCodeSize(0x6f485C8BF6fc43eA212E93BBF8ce046C7f1cb475)>0){ //ethereum-bridge\n            return OraclizeAddrResolverI(0x6f485C8BF6fc43eA212E93BBF8ce046C7f1cb475);\n        }\n        if (getCodeSize(0x20e12A1F859B3FeaE5Fb2A0A32C18F5a65555bBF)>0){ //ether.camp ide\n            return OraclizeAddrResolverI(0x20e12A1F859B3FeaE5Fb2A0A32C18F5a65555bBF);\n        }\n        if (getCodeSize(0x51efaF4c8B3C9AfBD5aB9F4bbC82784Ab6ef8fAA)>0){ //browser-solidity\n            return OraclizeAddrResolverI(0x51efaF4c8B3C9AfBD5aB9F4bbC82784Ab6ef8fAA);\n        }\n    }\n\n    function oraclize_getPrice(string datasource)\n    public\n    view\n    returns (uint){\n        return oraclize().getPrice(datasource);\n    }\n\n    function oraclize_getPrice(string datasource, uint gaslimit)\n    public\n    view\n    returns (uint){\n        return oraclize().getPrice(datasource, gaslimit);\n    }\n\n    function oraclize_query(string datasource, string arg)\n    public\n    returns (bytes32 id){\n        return oraclize_query(0, datasource, arg);\n    }\n\n    function oraclize_query(uint timestamp, string datasource, string arg)\n    public\n    returns (bytes32 id){\n        OraclizeI oracle = oraclize();\n        uint price = oracle.getPrice(datasource);\n        if (price > 1 ether + tx.gasprice*200000) return 0; // unexpectedly high price\n        return oracle.query.value(price)(timestamp, datasource, arg);\n    }\n\n    function oraclize_query(string datasource, string arg, uint gaslimit)\n    public\n    returns (bytes32 id){\n        return oraclize_query(0, datasource, arg, gaslimit);\n    }\n\n    function oraclize_query(uint timestamp, string datasource, string arg, uint gaslimit)\n    public\n    returns (bytes32 id){\n        OraclizeI oracle = oraclize();\n        uint price = oracle.getPrice(datasource, gaslimit);\n        if (price > 1 ether + tx.gasprice*gaslimit) return 0; // unexpectedly high price\n        return oracle.query_withGasLimit.value(price)(timestamp, datasource, arg, gaslimit);\n    }\n\n    function oraclize_query(string datasource, string arg1, string arg2)\n    public\n    returns (bytes32 id){\n        return oraclize_query(0, datasource, arg1, arg2);\n    }\n\n    function oraclize_query(uint timestamp, string datasource, string arg1, string arg2)\n    public\n    returns (bytes32 id){\n        OraclizeI oracle = oraclize();\n        uint price = oracle.getPrice(datasource);\n        if (price > 1 ether + tx.gasprice*200000) return 0; // unexpectedly high price\n        return oracle.query2.value(price)(timestamp, datasource, arg1, arg2);\n    }\n\n    function oraclize_query(string datasource, string arg1, string arg2, uint gaslimit)\n    public\n    returns (bytes32 id){\n        return oraclize_query(0, datasource, arg1, arg2, gaslimit);\n    }\n\n    function oraclize_query(uint timestamp, string datasource, string arg1, string arg2, uint gaslimit)\n    public\n    returns (bytes32 id){\n        OraclizeI oracle = oraclize();\n        uint price = oracle.getPrice(datasource, gaslimit);\n        if (price > 1 ether + tx.gasprice*gaslimit) return 0; // unexpectedly high price\n        return oracle.query2_withGasLimit.value(price)(timestamp, datasource, arg1, arg2, gaslimit);\n    }\n\n    // internalize w/o experimental\n    function oraclize_query(string datasource, string[] argN)\n    internal\n    returns (bytes32 id){\n        return oraclize_query(0, datasource, argN);\n    }\n\n    // internalize w/o experimental\n    function oraclize_query(uint timestamp, string datasource, string[] argN)\n    internal\n    returns (bytes32 id){\n        OraclizeI oracle = oraclize();\n        uint price = oracle.getPrice(datasource);\n        if (price > 1 ether + tx.gasprice*200000) return 0; // unexpectedly high price\n        bytes memory args = stra2cbor(argN);\n        return oracle.queryN.value(price)(timestamp, datasource, args);\n    }\n\n    // internalize w/o experimental\n    function oraclize_query(string datasource, string[] argN, uint gaslimit)\n    internal\n    returns (bytes32 id){\n        return oraclize_query(0, datasource, argN, gaslimit);\n    }\n\n    // internalize w/o experimental\n    function oraclize_query(uint timestamp, string datasource, string[] argN, uint gaslimit)\n    internal\n    returns (bytes32 id){\n        OraclizeI oracle = oraclize();\n        uint price = oracle.getPrice(datasource, gaslimit);\n        if (price > 1 ether + tx.gasprice*gaslimit) return 0; // unexpectedly high price\n        bytes memory args = stra2cbor(argN);\n        return oracle.queryN_withGasLimit.value(price)(timestamp, datasource, args, gaslimit);\n    }\n\n    function oraclize_cbAddress()\n    public\n    view\n    returns (address){\n        return oraclize().cbAddress();\n    }\n\n    function oraclize_setProof(byte proofP)\n    public {\n        return oraclize().setProofType(proofP);\n    }\n\n    function oraclize_setCustomGasPrice(uint gasPrice)\n    public {\n        return oraclize().setCustomGasPrice(gasPrice);\n    }\n\n    // setting to internal doesn't cause major increase in deployment and saves gas\n    // per use, for this tiny function\n    function getCodeSize(address _addr)\n    public\n    view\n    returns(uint _size) {\n        assembly {\n            _size := extcodesize(_addr)\n        }\n    }\n\n    // expects 0x prefix\n    function parseAddr(string _a)\n    public\n    pure\n    returns (address){\n        bytes memory tmp = bytes(_a);\n        uint160 iaddr = 0;\n        uint160 b1;\n        uint160 b2;\n        for (uint i=2; i<2+2*20; i+=2){\n            iaddr *= 256;\n            b1 = uint160(tmp[i]);\n            b2 = uint160(tmp[i+1]);\n            if ((b1 >= 97)&&(b1 <= 102)) b1 -= 87;\n            else if ((b1 >= 65)&&(b1 <= 70)) b1 -= 55;\n            else if ((b1 >= 48)&&(b1 <= 57)) b1 -= 48;\n            if ((b2 >= 97)&&(b2 <= 102)) b2 -= 87;\n            else if ((b2 >= 65)&&(b2 <= 70)) b2 -= 55;\n            else if ((b2 >= 48)&&(b2 <= 57)) b2 -= 48;\n            iaddr += (b1*16+b2);\n        }\n        return address(iaddr);\n    }\n\n    function strCompare(string _a, string _b)\n    public\n    pure\n    returns (int) {\n        bytes memory a = bytes(_a);\n        bytes memory b = bytes(_b);\n        uint minLength = a.length;\n        if (b.length < minLength) minLength = b.length;\n        for (uint i = 0; i < minLength; i ++)\n            if (a[i] < b[i])\n                return -1;\n            else if (a[i] > b[i])\n                return 1;\n        if (a.length < b.length)\n            return -1;\n        else if (a.length > b.length)\n            return 1;\n        else\n            return 0;\n    }\n\n    function indexOf(string _haystack, string _needle)\n    public\n    pure\n    returns (int) {\n        bytes memory h = bytes(_haystack);\n        bytes memory n = bytes(_needle);\n        if(h.length < 1 || n.length < 1 || (n.length > h.length))\n            return -1;\n        else if(h.length > (2**128 -1))\n            return -1;\n        else\n        {\n            uint subindex = 0;\n            for (uint i = 0; i < h.length; i ++)\n            {\n                if (h[i] == n[0])\n                {\n                    subindex = 1;\n                    while(subindex < n.length && (i + subindex) < h.length && h[i + subindex] == n[subindex])\n                    {\n                        subindex++;\n                    }\n                    if(subindex == n.length)\n                        return int(i);\n                }\n            }\n            return -1;\n        }\n    }\n\n    function strConcat(string _a, string _b, string _c, string _d, string _e)\n    internal\n    pure\n    returns (string) {\n        bytes memory _ba = bytes(_a);\n        bytes memory _bb = bytes(_b);\n        bytes memory _bc = bytes(_c);\n        bytes memory _bd = bytes(_d);\n        bytes memory _be = bytes(_e);\n        string memory abcde = new string(_ba.length + _bb.length + _bc.length + _bd.length + _be.length);\n        bytes memory babcde = bytes(abcde);\n        uint k = 0;\n        for (uint i = 0; i < _ba.length; i++) babcde[k++] = _ba[i];\n        for (i = 0; i < _bb.length; i++) babcde[k++] = _bb[i];\n        for (i = 0; i < _bc.length; i++) babcde[k++] = _bc[i];\n        for (i = 0; i < _bd.length; i++) babcde[k++] = _bd[i];\n        for (i = 0; i < _be.length; i++) babcde[k++] = _be[i];\n        return string(babcde);\n    }\n\n    function strConcat(string _a, string _b, string _c, string _d)\n    internal\n    pure\n    returns (string) {\n        return strConcat(_a, _b, _c, _d, \"\");\n    }\n\n    function strConcat(string _a, string _b, string _c)\n    internal\n    pure\n    returns (string) {\n        return strConcat(_a, _b, _c, \"\", \"\");\n    }\n\n    function strConcat(string _a, string _b)\n    internal\n    pure\n    returns (string) {\n        return strConcat(_a, _b, \"\", \"\", \"\");\n    }\n\n    // parseInt\n    function parseInt(string _a)\n    public\n    pure\n    returns (uint) {\n        return parseInt(_a, 0);\n    }\n\n    // parseInt(parseFloat*10^_b)\n    function parseInt(string _a, uint _b)\n    public\n    pure\n    returns (uint) {\n        bytes memory bresult = bytes(_a);\n        uint mint = 0;\n        bool decimals = false;\n        for (uint i=0; i<bresult.length; i++){\n            if ((bresult[i] >= 48)&&(bresult[i] <= 57)){\n                if (decimals){\n                   if (_b == 0) break;\n                    else _b--;\n                }\n                mint *= 10;\n                mint += uint(bresult[i]) - 48;\n            } else if (bresult[i] == 46) decimals = true;\n        }\n        if (_b > 0) mint *= 10**_b;\n        return mint;\n    }\n\n    function uint2str(uint i)\n    internal\n    pure\n    returns (string){\n        if (i == 0) return \"0\";\n        uint j = i;\n        uint len;\n        while (j != 0){\n            len++;\n            j /= 10;\n        }\n        bytes memory bstr = new bytes(len);\n        uint k = len - 1;\n        while (i != 0){\n            bstr[k--] = byte(48 + i % 10);\n            i /= 10;\n        }\n        return string(bstr);\n    }\n\n    using CBOR for Buffer.buffer;\n    function stra2cbor(string[] arr)\n    internal\n    pure\n    returns (bytes) {\n        Buffer.buffer memory buf;\n        Buffer.init(buf, 1024);\n        buf.startArray();\n        for (uint i = 0; i < arr.length; i++) {\n            buf.encodeString(arr[i]);\n        }\n        buf.endSequence();\n        return buf.buf;\n    }\n\n    function ba2cbor(bytes[] arr)\n    internal\n    pure\n    returns (bytes) {\n        Buffer.buffer memory buf;\n        Buffer.init(buf, 1024);\n        buf.startArray();\n        for (uint i = 0; i < arr.length; i++) {\n            buf.encodeBytes(arr[i]);\n        }\n        buf.endSequence();\n        return buf.buf;\n    }\n\n    function b2s(bytes _b)\n    internal\n    returns (string) {\n        bytes memory output = new bytes(_b.length * 2);\n        uint len = output.length;\n\n        assembly {\n            let i := 0\n            let mem := 0\n            loop:\n                // isolate octet\n                0x1000000000000000000000000000000000000000000000000000000000000000\n                exp(0x10, mod(i, 0x40))\n                // change offset only if needed\n                jumpi(skip, gt(mod(i, 0x40), 0))\n                // save offset mem for reuse\n                mem := mload(add(_b, add(mul(0x20, div(i, 0x40)), 0x20)))\n            skip:\n                mem\n                mul\n                div\n                dup1\n                // check if alpha or numerical, jump if numerical\n                0x0a\n                swap1\n                lt\n                num\n                jumpi\n                // offset alpha char correctly\n                0x0a\n                swap1\n                sub\n            alp:\n                0x61\n                add\n                jump(end)\n            num:\n                0x30\n                add\n            end:\n                add(output, add(0x20, i))\n                mstore8\n                i := add(i, 1)\n                jumpi(loop, gt(len, i))\n        }\n\n        return string(output);\n    }\n}\n// </ORACLIZE_API_LIB>\n",
  "sourcePath": "/Users/rpalacios/masteruah/merchant/contracts/ethereum-api/lib-experimental/oraclizeAPI_lib.sol",
  "compiler": {
    "name": "solc",
    "version": "0.4.24+commit.e67f0147.Emscripten.clang"
  },
  "schemaVersion": "2.0.1",
  "updatedAt": "2018-12-07T10:36:57.324Z"
}