{
  "contractName": "Oraclize",
  "abi": [
    {
      "constant": true,
      "inputs": [],
      "name": "baseprice",
      "outputs": [
        {
          "name": "",
          "type": "uint256"
        }
      ],
      "payable": false,
      "stateMutability": "view",
      "type": "function"
    },
    {
      "constant": true,
      "inputs": [
        {
          "name": "",
          "type": "address"
        }
      ],
      "name": "offchainPayment",
      "outputs": [
        {
          "name": "",
          "type": "bool"
        }
      ],
      "payable": false,
      "stateMutability": "view",
      "type": "function"
    },
    {
      "constant": true,
      "inputs": [
        {
          "name": "",
          "type": "address"
        }
      ],
      "name": "cbAddresses",
      "outputs": [
        {
          "name": "",
          "type": "bytes1"
        }
      ],
      "payable": false,
      "stateMutability": "view",
      "type": "function"
    },
    {
      "constant": true,
      "inputs": [
        {
          "name": "",
          "type": "uint256"
        }
      ],
      "name": "randomDS_sessionPubKeysHash",
      "outputs": [
        {
          "name": "",
          "type": "bytes32"
        }
      ],
      "payable": false,
      "stateMutability": "view",
      "type": "function"
    },
    {
      "inputs": [],
      "payable": false,
      "stateMutability": "nonpayable",
      "type": "constructor"
    },
    {
      "anonymous": false,
      "inputs": [
        {
          "indexed": false,
          "name": "sender",
          "type": "address"
        },
        {
          "indexed": false,
          "name": "cid",
          "type": "bytes32"
        },
        {
          "indexed": false,
          "name": "timestamp",
          "type": "uint256"
        },
        {
          "indexed": false,
          "name": "datasource",
          "type": "string"
        },
        {
          "indexed": false,
          "name": "arg",
          "type": "string"
        },
        {
          "indexed": false,
          "name": "gaslimit",
          "type": "uint256"
        },
        {
          "indexed": false,
          "name": "proofType",
          "type": "bytes1"
        },
        {
          "indexed": false,
          "name": "gasPrice",
          "type": "uint256"
        }
      ],
      "name": "Log1",
      "type": "event"
    },
    {
      "anonymous": false,
      "inputs": [
        {
          "indexed": false,
          "name": "sender",
          "type": "address"
        },
        {
          "indexed": false,
          "name": "cid",
          "type": "bytes32"
        },
        {
          "indexed": false,
          "name": "timestamp",
          "type": "uint256"
        },
        {
          "indexed": false,
          "name": "datasource",
          "type": "string"
        },
        {
          "indexed": false,
          "name": "arg1",
          "type": "string"
        },
        {
          "indexed": false,
          "name": "arg2",
          "type": "string"
        },
        {
          "indexed": false,
          "name": "gaslimit",
          "type": "uint256"
        },
        {
          "indexed": false,
          "name": "proofType",
          "type": "bytes1"
        },
        {
          "indexed": false,
          "name": "gasPrice",
          "type": "uint256"
        }
      ],
      "name": "Log2",
      "type": "event"
    },
    {
      "anonymous": false,
      "inputs": [
        {
          "indexed": false,
          "name": "sender",
          "type": "address"
        },
        {
          "indexed": false,
          "name": "cid",
          "type": "bytes32"
        },
        {
          "indexed": false,
          "name": "timestamp",
          "type": "uint256"
        },
        {
          "indexed": false,
          "name": "datasource",
          "type": "string"
        },
        {
          "indexed": false,
          "name": "args",
          "type": "bytes"
        },
        {
          "indexed": false,
          "name": "gaslimit",
          "type": "uint256"
        },
        {
          "indexed": false,
          "name": "proofType",
          "type": "bytes1"
        },
        {
          "indexed": false,
          "name": "gasPrice",
          "type": "uint256"
        }
      ],
      "name": "LogN",
      "type": "event"
    },
    {
      "anonymous": false,
      "inputs": [
        {
          "indexed": false,
          "name": "sender",
          "type": "address"
        },
        {
          "indexed": false,
          "name": "cid",
          "type": "bytes32"
        },
        {
          "indexed": false,
          "name": "timestamp",
          "type": "uint256"
        },
        {
          "indexed": false,
          "name": "datasource",
          "type": "string"
        },
        {
          "indexed": false,
          "name": "arg",
          "type": "string"
        },
        {
          "indexed": false,
          "name": "callback",
          "type": "function"
        },
        {
          "indexed": false,
          "name": "gaslimit",
          "type": "uint256"
        },
        {
          "indexed": false,
          "name": "proofType",
          "type": "bytes1"
        },
        {
          "indexed": false,
          "name": "gasPrice",
          "type": "uint256"
        }
      ],
      "name": "Log1_fnc",
      "type": "event"
    },
    {
      "anonymous": false,
      "inputs": [
        {
          "indexed": false,
          "name": "sender",
          "type": "address"
        },
        {
          "indexed": false,
          "name": "cid",
          "type": "bytes32"
        },
        {
          "indexed": false,
          "name": "timestamp",
          "type": "uint256"
        },
        {
          "indexed": false,
          "name": "datasource",
          "type": "string"
        },
        {
          "indexed": false,
          "name": "arg1",
          "type": "string"
        },
        {
          "indexed": false,
          "name": "arg2",
          "type": "string"
        },
        {
          "indexed": false,
          "name": "callback",
          "type": "function"
        },
        {
          "indexed": false,
          "name": "gaslimit",
          "type": "uint256"
        },
        {
          "indexed": false,
          "name": "proofType",
          "type": "bytes1"
        },
        {
          "indexed": false,
          "name": "gasPrice",
          "type": "uint256"
        }
      ],
      "name": "Log2_fnc",
      "type": "event"
    },
    {
      "anonymous": false,
      "inputs": [
        {
          "indexed": false,
          "name": "sender",
          "type": "address"
        },
        {
          "indexed": false,
          "name": "cid",
          "type": "bytes32"
        },
        {
          "indexed": false,
          "name": "timestamp",
          "type": "uint256"
        },
        {
          "indexed": false,
          "name": "datasource",
          "type": "string"
        },
        {
          "indexed": false,
          "name": "args",
          "type": "bytes"
        },
        {
          "indexed": false,
          "name": "callback",
          "type": "function"
        },
        {
          "indexed": false,
          "name": "gaslimit",
          "type": "uint256"
        },
        {
          "indexed": false,
          "name": "proofType",
          "type": "bytes1"
        },
        {
          "indexed": false,
          "name": "gasPrice",
          "type": "uint256"
        }
      ],
      "name": "LogN_fnc",
      "type": "event"
    },
    {
      "anonymous": false,
      "inputs": [
        {
          "indexed": true,
          "name": "idx_sender",
          "type": "address"
        },
        {
          "indexed": false,
          "name": "sender",
          "type": "address"
        },
        {
          "indexed": true,
          "name": "idx_flag",
          "type": "bool"
        },
        {
          "indexed": false,
          "name": "flag",
          "type": "bool"
        }
      ],
      "name": "Emit_OffchainPaymentFlag",
      "type": "event"
    },
    {
      "constant": false,
      "inputs": [
        {
          "name": "_newAdmin",
          "type": "address"
        }
      ],
      "name": "changeAdmin",
      "outputs": [],
      "payable": false,
      "stateMutability": "nonpayable",
      "type": "function"
    },
    {
      "constant": false,
      "inputs": [
        {
          "name": "_newFlagger",
          "type": "address"
        }
      ],
      "name": "changePaymentFlagger",
      "outputs": [],
      "payable": false,
      "stateMutability": "nonpayable",
      "type": "function"
    },
    {
      "constant": false,
      "inputs": [
        {
          "name": "newCbAddress",
          "type": "address"
        },
        {
          "name": "addressType",
          "type": "bytes1"
        }
      ],
      "name": "addCbAddress",
      "outputs": [],
      "payable": false,
      "stateMutability": "nonpayable",
      "type": "function"
    },
    {
      "constant": false,
      "inputs": [
        {
          "name": "newCbAddress",
          "type": "address"
        },
        {
          "name": "addressType",
          "type": "bytes1"
        },
        {
          "name": "proof",
          "type": "bytes"
        }
      ],
      "name": "addCbAddress",
      "outputs": [],
      "payable": false,
      "stateMutability": "nonpayable",
      "type": "function"
    },
    {
      "constant": false,
      "inputs": [
        {
          "name": "newCbAddress",
          "type": "address"
        }
      ],
      "name": "removeCbAddress",
      "outputs": [],
      "payable": false,
      "stateMutability": "nonpayable",
      "type": "function"
    },
    {
      "constant": true,
      "inputs": [],
      "name": "cbAddress",
      "outputs": [
        {
          "name": "_cbAddress",
          "type": "address"
        }
      ],
      "payable": false,
      "stateMutability": "view",
      "type": "function"
    },
    {
      "constant": false,
      "inputs": [
        {
          "name": "dsname",
          "type": "string"
        },
        {
          "name": "multiplier",
          "type": "uint256"
        }
      ],
      "name": "addDSource",
      "outputs": [],
      "payable": false,
      "stateMutability": "nonpayable",
      "type": "function"
    },
    {
      "constant": false,
      "inputs": [
        {
          "name": "dsname",
          "type": "string"
        },
        {
          "name": "proofType",
          "type": "bytes1"
        },
        {
          "name": "multiplier",
          "type": "uint256"
        }
      ],
      "name": "addDSource",
      "outputs": [],
      "payable": false,
      "stateMutability": "nonpayable",
      "type": "function"
    },
    {
      "constant": false,
      "inputs": [
        {
          "name": "dsHash",
          "type": "bytes32[]"
        },
        {
          "name": "multiplier",
          "type": "uint256[]"
        }
      ],
      "name": "multiAddDSource",
      "outputs": [],
      "payable": false,
      "stateMutability": "nonpayable",
      "type": "function"
    },
    {
      "constant": false,
      "inputs": [
        {
          "name": "_proofType",
          "type": "uint256[]"
        },
        {
          "name": "_addr",
          "type": "address[]"
        }
      ],
      "name": "multisetProofType",
      "outputs": [],
      "payable": false,
      "stateMutability": "nonpayable",
      "type": "function"
    },
    {
      "constant": false,
      "inputs": [
        {
          "name": "_gasPrice",
          "type": "uint256[]"
        },
        {
          "name": "_addr",
          "type": "address[]"
        }
      ],
      "name": "multisetCustomGasPrice",
      "outputs": [],
      "payable": false,
      "stateMutability": "nonpayable",
      "type": "function"
    },
    {
      "constant": false,
      "inputs": [
        {
          "name": "newgasprice",
          "type": "uint256"
        }
      ],
      "name": "setGasPrice",
      "outputs": [],
      "payable": false,
      "stateMutability": "nonpayable",
      "type": "function"
    },
    {
      "constant": false,
      "inputs": [
        {
          "name": "new_baseprice",
          "type": "uint256"
        },
        {
          "name": "proofID",
          "type": "bytes"
        }
      ],
      "name": "setBasePrice",
      "outputs": [],
      "payable": false,
      "stateMutability": "nonpayable",
      "type": "function"
    },
    {
      "constant": false,
      "inputs": [
        {
          "name": "new_baseprice",
          "type": "uint256"
        }
      ],
      "name": "setBasePrice",
      "outputs": [],
      "payable": false,
      "stateMutability": "nonpayable",
      "type": "function"
    },
    {
      "constant": false,
      "inputs": [
        {
          "name": "_addr",
          "type": "address"
        },
        {
          "name": "_flag",
          "type": "bool"
        }
      ],
      "name": "setOffchainPayment",
      "outputs": [],
      "payable": false,
      "stateMutability": "nonpayable",
      "type": "function"
    },
    {
      "constant": false,
      "inputs": [
        {
          "name": "_addr",
          "type": "address"
        }
      ],
      "name": "withdrawFunds",
      "outputs": [],
      "payable": false,
      "stateMutability": "nonpayable",
      "type": "function"
    },
    {
      "constant": false,
      "inputs": [
        {
          "name": "_newSessionPubKeysHash",
          "type": "bytes32[]"
        }
      ],
      "name": "randomDS_updateSessionPubKeysHash",
      "outputs": [],
      "payable": false,
      "stateMutability": "nonpayable",
      "type": "function"
    },
    {
      "constant": true,
      "inputs": [],
      "name": "randomDS_getSessionPubKeyHash",
      "outputs": [
        {
          "name": "",
          "type": "bytes32"
        }
      ],
      "payable": false,
      "stateMutability": "view",
      "type": "function"
    },
    {
      "constant": false,
      "inputs": [
        {
          "name": "_proofType",
          "type": "bytes1"
        }
      ],
      "name": "setProofType",
      "outputs": [],
      "payable": false,
      "stateMutability": "nonpayable",
      "type": "function"
    },
    {
      "constant": false,
      "inputs": [
        {
          "name": "_gasPrice",
          "type": "uint256"
        }
      ],
      "name": "setCustomGasPrice",
      "outputs": [],
      "payable": false,
      "stateMutability": "nonpayable",
      "type": "function"
    },
    {
      "constant": false,
      "inputs": [
        {
          "name": "_datasource",
          "type": "string"
        }
      ],
      "name": "getPrice",
      "outputs": [
        {
          "name": "_dsprice",
          "type": "uint256"
        }
      ],
      "payable": false,
      "stateMutability": "nonpayable",
      "type": "function"
    },
    {
      "constant": false,
      "inputs": [
        {
          "name": "_datasource",
          "type": "string"
        },
        {
          "name": "_gaslimit",
          "type": "uint256"
        }
      ],
      "name": "getPrice",
      "outputs": [
        {
          "name": "_dsprice",
          "type": "uint256"
        }
      ],
      "payable": false,
      "stateMutability": "nonpayable",
      "type": "function"
    },
    {
      "constant": false,
      "inputs": [
        {
          "name": "_datasource",
          "type": "string"
        },
        {
          "name": "_arg",
          "type": "string"
        }
      ],
      "name": "query",
      "outputs": [
        {
          "name": "_id",
          "type": "bytes32"
        }
      ],
      "payable": true,
      "stateMutability": "payable",
      "type": "function"
    },
    {
      "constant": false,
      "inputs": [
        {
          "name": "_timestamp",
          "type": "uint256"
        },
        {
          "name": "_datasource",
          "type": "string"
        },
        {
          "name": "_arg",
          "type": "string"
        }
      ],
      "name": "query",
      "outputs": [
        {
          "name": "_id",
          "type": "bytes32"
        }
      ],
      "payable": true,
      "stateMutability": "payable",
      "type": "function"
    },
    {
      "constant": false,
      "inputs": [
        {
          "name": "_timestamp",
          "type": "uint256"
        },
        {
          "name": "_datasource",
          "type": "string"
        },
        {
          "name": "_arg",
          "type": "string"
        },
        {
          "name": "_gaslimit",
          "type": "uint256"
        }
      ],
      "name": "query_withGasLimit",
      "outputs": [
        {
          "name": "_id",
          "type": "bytes32"
        }
      ],
      "payable": true,
      "stateMutability": "payable",
      "type": "function"
    },
    {
      "constant": false,
      "inputs": [
        {
          "name": "_timestamp",
          "type": "uint256"
        },
        {
          "name": "_datasource",
          "type": "string"
        },
        {
          "name": "_arg",
          "type": "string"
        },
        {
          "name": "_gaslimit",
          "type": "uint256"
        }
      ],
      "name": "query1_withGasLimit",
      "outputs": [
        {
          "name": "_id",
          "type": "bytes32"
        }
      ],
      "payable": true,
      "stateMutability": "payable",
      "type": "function"
    },
    {
      "constant": false,
      "inputs": [
        {
          "name": "_timestamp",
          "type": "uint256"
        },
        {
          "name": "_datasource",
          "type": "string"
        },
        {
          "name": "_arg1",
          "type": "string"
        },
        {
          "name": "_arg2",
          "type": "string"
        },
        {
          "name": "_gaslimit",
          "type": "uint256"
        }
      ],
      "name": "query2_withGasLimit",
      "outputs": [
        {
          "name": "_id",
          "type": "bytes32"
        }
      ],
      "payable": true,
      "stateMutability": "payable",
      "type": "function"
    },
    {
      "constant": false,
      "inputs": [
        {
          "name": "_timestamp",
          "type": "uint256"
        },
        {
          "name": "_datasource",
          "type": "string"
        },
        {
          "name": "_args",
          "type": "bytes"
        },
        {
          "name": "_gaslimit",
          "type": "uint256"
        }
      ],
      "name": "queryN_withGasLimit",
      "outputs": [
        {
          "name": "_id",
          "type": "bytes32"
        }
      ],
      "payable": true,
      "stateMutability": "payable",
      "type": "function"
    },
    {
      "constant": false,
      "inputs": [
        {
          "name": "_datasource",
          "type": "string"
        },
        {
          "name": "_arg",
          "type": "string"
        }
      ],
      "name": "query1",
      "outputs": [
        {
          "name": "_id",
          "type": "bytes32"
        }
      ],
      "payable": true,
      "stateMutability": "payable",
      "type": "function"
    },
    {
      "constant": false,
      "inputs": [
        {
          "name": "_timestamp",
          "type": "uint256"
        },
        {
          "name": "_datasource",
          "type": "string"
        },
        {
          "name": "_arg",
          "type": "string"
        }
      ],
      "name": "query1",
      "outputs": [
        {
          "name": "_id",
          "type": "bytes32"
        }
      ],
      "payable": true,
      "stateMutability": "payable",
      "type": "function"
    },
    {
      "constant": false,
      "inputs": [
        {
          "name": "_timestamp",
          "type": "uint256"
        },
        {
          "name": "_datasource",
          "type": "string"
        },
        {
          "name": "_arg",
          "type": "string"
        },
        {
          "name": "_gaslimit",
          "type": "uint256"
        }
      ],
      "name": "query1",
      "outputs": [
        {
          "name": "_id",
          "type": "bytes32"
        }
      ],
      "payable": true,
      "stateMutability": "payable",
      "type": "function"
    },
    {
      "constant": false,
      "inputs": [
        {
          "name": "_timestamp",
          "type": "uint256"
        },
        {
          "name": "_datasource",
          "type": "string"
        },
        {
          "name": "_arg1",
          "type": "string"
        },
        {
          "name": "_arg2",
          "type": "string"
        },
        {
          "name": "_gaslimit",
          "type": "uint256"
        }
      ],
      "name": "query2",
      "outputs": [
        {
          "name": "_id",
          "type": "bytes32"
        }
      ],
      "payable": true,
      "stateMutability": "payable",
      "type": "function"
    },
    {
      "constant": false,
      "inputs": [
        {
          "name": "_datasource",
          "type": "string"
        },
        {
          "name": "_arg1",
          "type": "string"
        },
        {
          "name": "_arg2",
          "type": "string"
        }
      ],
      "name": "query2",
      "outputs": [
        {
          "name": "_id",
          "type": "bytes32"
        }
      ],
      "payable": true,
      "stateMutability": "payable",
      "type": "function"
    },
    {
      "constant": false,
      "inputs": [
        {
          "name": "_timestamp",
          "type": "uint256"
        },
        {
          "name": "_datasource",
          "type": "string"
        },
        {
          "name": "_arg1",
          "type": "string"
        },
        {
          "name": "_arg2",
          "type": "string"
        }
      ],
      "name": "query2",
      "outputs": [
        {
          "name": "_id",
          "type": "bytes32"
        }
      ],
      "payable": true,
      "stateMutability": "payable",
      "type": "function"
    },
    {
      "constant": false,
      "inputs": [
        {
          "name": "_datasource",
          "type": "string"
        },
        {
          "name": "_args",
          "type": "bytes"
        }
      ],
      "name": "queryN",
      "outputs": [
        {
          "name": "_id",
          "type": "bytes32"
        }
      ],
      "payable": true,
      "stateMutability": "payable",
      "type": "function"
    },
    {
      "constant": false,
      "inputs": [
        {
          "name": "_timestamp",
          "type": "uint256"
        },
        {
          "name": "_datasource",
          "type": "string"
        },
        {
          "name": "_args",
          "type": "bytes"
        }
      ],
      "name": "queryN",
      "outputs": [
        {
          "name": "_id",
          "type": "bytes32"
        }
      ],
      "payable": true,
      "stateMutability": "payable",
      "type": "function"
    },
    {
      "constant": false,
      "inputs": [
        {
          "name": "_timestamp",
          "type": "uint256"
        },
        {
          "name": "_datasource",
          "type": "string"
        },
        {
          "name": "_args",
          "type": "bytes"
        },
        {
          "name": "_gaslimit",
          "type": "uint256"
        }
      ],
      "name": "queryN",
      "outputs": [
        {
          "name": "_id",
          "type": "bytes32"
        }
      ],
      "payable": true,
      "stateMutability": "payable",
      "type": "function"
    },
    {
      "constant": false,
      "inputs": [
        {
          "name": "_timestamp",
          "type": "uint256"
        },
        {
          "name": "_datasource",
          "type": "string"
        },
        {
          "name": "_arg",
          "type": "string"
        },
        {
          "name": "_fnc",
          "type": "function"
        },
        {
          "name": "_gaslimit",
          "type": "uint256"
        }
      ],
      "name": "query1_fnc",
      "outputs": [
        {
          "name": "_id",
          "type": "bytes32"
        }
      ],
      "payable": true,
      "stateMutability": "payable",
      "type": "function"
    },
    {
      "constant": false,
      "inputs": [
        {
          "name": "_timestamp",
          "type": "uint256"
        },
        {
          "name": "_datasource",
          "type": "string"
        },
        {
          "name": "_arg1",
          "type": "string"
        },
        {
          "name": "_arg2",
          "type": "string"
        },
        {
          "name": "_fnc",
          "type": "function"
        },
        {
          "name": "_gaslimit",
          "type": "uint256"
        }
      ],
      "name": "query2_fnc",
      "outputs": [
        {
          "name": "_id",
          "type": "bytes32"
        }
      ],
      "payable": true,
      "stateMutability": "payable",
      "type": "function"
    },
    {
      "constant": false,
      "inputs": [
        {
          "name": "_timestamp",
          "type": "uint256"
        },
        {
          "name": "_datasource",
          "type": "string"
        },
        {
          "name": "_args",
          "type": "bytes"
        },
        {
          "name": "_fnc",
          "type": "function"
        },
        {
          "name": "_gaslimit",
          "type": "uint256"
        }
      ],
      "name": "queryN_fnc",
      "outputs": [
        {
          "name": "_id",
          "type": "bytes32"
        }
      ],
      "payable": true,
      "stateMutability": "payable",
      "type": "function"
    }
  ],
  "bytecode": "0x60806040526404a817c80060055534801561001957600080fd5b5033600360006101000a81548173ffffffffffffffffffffffffffffffffffffffff021916908373ffffffffffffffffffffffffffffffffffffffff16021790555061453f8061006a6000396000f30060806040526004361061021a576000357c0100000000000000000000000000000000000000000000000000000000900463ffffffff16806323dc42e71461021f5780632ef3accc1461028b5780634536297814610312578063480a434d146103745780634a64c23f1461039f578063512c0b9c146103e2578063524f38891461041d5780635c242c591461049a578063627fd3bb1461056c57806368742da6146105db578063688dcfd71461061e5780636c0f7ee71461066d57806375700437146106c05780637653740f1461073657806377228659146107eb5780637bc9165b1461086f5780637d242ae5146108ca5780637e1c42051461090f578063801298fa14610a2757806380325b2d14610a6a57806381ade30714610b3c57806383eed3d514610b9e57806385dee34c14610c0a5780638f28397014610c9857806398cf6f2214610cdb578063a2ec191a14610d3d578063abaa5f3e14610d82578063ad44d0ca14610db5578063adf59f9914610f1c578063b5bfdd7314610f88578063bf1fe42014611027578063c281d19e14611054578063c51be90f146110ab578063c55c1cb614611121578063ca6ad1e414611197578063d9597016146111c4578063db23995114611217578063db37e42f146112b2578063dba8fc6114611305578063de4b326214611426578063e6c0e9e114611453578063e839e65e1461149c578063e8be385314611516578063f84072a514611565575b600080fd5b61026d60048036038101908080359060200190929190803590602001908201803590602001919091929391929390803590602001908201803590602001919091929391929390505050611686565b60405180826000191660001916815260200191505060405180910390f35b34801561029757600080fd5b506102fc600480360381019080803590602001908201803590602001908080601f016020809104026020016040519081016040528093929190818152602001838380828437820191505050505050919291929080359060200190929190505050611706565b6040518082815260200191505060405180910390f35b61035660048036038101908080359060200190820180359060200191909192939192939080359060200190820180359060200191909192939192939050505061171b565b60405180826000191660001916815260200191505060405180910390f35b34801561038057600080fd5b5061038961179b565b6040518082815260200191505060405180910390f35b3480156103ab57600080fd5b506103e0600480360381019080803573ffffffffffffffffffffffffffffffffffffffff1690602001909291905050506117a1565b005b3480156103ee57600080fd5b5061041b6004803603810190808035906020019082018035906020019190919293919293905050506117fb565b005b34801561042957600080fd5b50610484600480360381019080803590602001908201803590602001908080601f0160208091040260200160405190810160405280939291908181526020018383808284378201915050505050509192919290505050611881565b6040518082815260200191505060405180910390f35b61054e60048036038101908080359060200190929190803590602001908201803590602001908080601f0160208091040260200160405190810160405280939291908181526020018383808284378201915050505050509192919290803590602001908201803590602001908080601f016020809104026020016040519081016040528093929190818152602001838380828437820191505050505050919291929080359060200190929190505050611894565b60405180826000191660001916815260200191505060405180910390f35b34801561057857600080fd5b506105d9600480360381019080803573ffffffffffffffffffffffffffffffffffffffff16906020019092919080357effffffffffffffffffffffffffffffffffffffffffffffffffffffffffffff19169060200190929190505050611c4d565b005b3480156105e757600080fd5b5061061c600480360381019080803573ffffffffffffffffffffffffffffffffffffffff169060200190929190505050611c74565b005b34801561062a57600080fd5b5061066b60048036038101908080357effffffffffffffffffffffffffffffffffffffffffffffffffffffffffffff19169060200190929190505050611ccc565b005b34801561067957600080fd5b506106be600480360381019080803590602001908201803590602001919091929391929390803590602001908201803590602001919091929391929390505050611d47565b005b6107186004803603810190808035906020019092919080359060200190820180359060200191909192939192939080359060200190820180359060200191909192939192939080359060200190929190505050611e0d565b60405180826000191660001916815260200191505060405180910390f35b34801561074257600080fd5b506107e9600480360381019080803573ffffffffffffffffffffffffffffffffffffffff16906020019092919080357effffffffffffffffffffffffffffffffffffffffffffffffffffffffffffff19169060200190929190803590602001908201803590602001908080601f0160208091040260200160405190810160405280939291908181526020018383808284378201915050505050509192919290505050611e8b565b005b61085160048036038101908080359060200190929190803590602001908201803590602001919091929391929390803590602001908201803590602001919091929391929390803590602001908201803590602001919091929391929390505050611f10565b60405180826000191660001916815260200191505060405180910390f35b34801561087b57600080fd5b506108b0600480360381019080803573ffffffffffffffffffffffffffffffffffffffff169060200190929190505050611fc5565b604051808215151515815260200191505060405180910390f35b3480156108d657600080fd5b5061090d60048036038101908080359060200190929190803590602001908201803590602001919091929391929390505050611fe5565b005b610a0960048036038101908080359060200190929190803590602001908201803590602001908080601f0160208091040260200160405190810160405280939291908181526020018383808284378201915050505050509192919290803590602001908201803590602001908080601f0160208091040260200160405190810160405280939291908181526020018383808284378201915050505050509192919290803590602001908201803590602001908080601f01602080910402602001604051908101604052809392919081815260200183838082843782019150505050505091929192908035906020019092919050505061208a565b60405180826000191660001916815260200191505060405180910390f35b348015610a3357600080fd5b50610a68600480360381019080803573ffffffffffffffffffffffffffffffffffffffff1690602001909291905050506124b1565b005b610b1e60048036038101908080359060200190929190803590602001908201803590602001908080601f0160208091040260200160405190810160405280939291908181526020018383808284378201915050505050509192919290803590602001908201803590602001908080601f0160208091040260200160405190810160405280939291908181526020018383808284378201915050505050509192919290803590602001909291905050506124fd565b60405180826000191660001916815260200191505060405180910390f35b610b806004803603810190808035906020019082018035906020019190919293919293908035906020019082018035906020019190919293919293905050506128b6565b60405180826000191660001916815260200191505060405180910390f35b610bec60048036038101908080359060200190929190803590602001908201803590602001919091929391929390803590602001908201803590602001919091929391929390505050612936565b60405180826000191660001916815260200191505060405180910390f35b610c7a60048036038101908080359060200190929190803590602001908201803590602001919091929391929390803590602001908201803590602001919091929391929390803590602001908201803590602001919091929391929390803590602001909291905050506129b6565b60405180826000191660001916815260200191505060405180910390f35b348015610ca457600080fd5b50610cd9600480360381019080803573ffffffffffffffffffffffffffffffffffffffff169060200190929190505050612a69565b005b610d1f600480360381019080803590602001908201803590602001919091929391929390803590602001908201803590602001919091929391929390505050612ab5565b60405180826000191660001916815260200191505060405180910390f35b348015610d4957600080fd5b50610d8060048036038101908080359060200190820180359060200191909192939192939080359060200190929190505050612b35565b005b348015610d8e57600080fd5b50610d97612b9a565b60405180826000191660001916815260200191505060405180910390f35b610efe60048036038101908080359060200190929190803590602001908201803590602001908080601f0160208091040260200160405190810160405280939291908181526020018383808284378201915050505050509192919290803590602001908201803590602001908080601f0160208091040260200160405190810160405280939291908181526020018383808284378201915050505050509192919290803590602001908201803590602001908080601f01602080910402602001604051908101604052809392919081815260200183838082843782019150505050505091929192908035806c0100000000000000000000000090049068010000000000000000900463ffffffff1677ffffffffffffffffffffffffffffffffffffffffffffffff1690916020019190939291909392919080359060200190929190505050612c27565b60405180826000191660001916815260200191505060405180910390f35b610f6a600480360381019080803590602001909291908035906020019082018035906020019190919293919293908035906020019082018035906020019190919293919293905050506130ac565b60405180826000191660001916815260200191505060405180910390f35b348015610f9457600080fd5b50611025600480360381019080803590602001908201803590602001908080601f016020809104026020016040519081016040528093929190818152602001838380828437820191505050505050919291929080357effffffffffffffffffffffffffffffffffffffffffffffffffffffffffffff191690602001909291908035906020019092919050505061312c565b005b34801561103357600080fd5b5061105260048036038101908080359060200190929190505050613241565b005b34801561106057600080fd5b50611069613253565b604051808273ffffffffffffffffffffffffffffffffffffffff1673ffffffffffffffffffffffffffffffffffffffff16815260200191505060405180910390f35b6111036004803603810190808035906020019092919080359060200190820180359060200191909192939192939080359060200190820180359060200191909192939192939080359060200190929190505050613314565b60405180826000191660001916815260200191505060405180910390f35b6111796004803603810190808035906020019092919080359060200190820180359060200191909192939192939080359060200190820180359060200191909192939192939080359060200190929190505050613392565b60405180826000191660001916815260200191505060405180910390f35b3480156111a357600080fd5b506111c260048036038101908080359060200190929190505050613410565b005b3480156111d057600080fd5b50611215600480360381019080803590602001908201803590602001919091929391929390803590602001908201803590602001919091929391929390505050613457565b005b34801561122357600080fd5b50611258600480360381019080803573ffffffffffffffffffffffffffffffffffffffff169060200190929190505050613507565b60405180827effffffffffffffffffffffffffffffffffffffffffffffffffffffffffffff19167effffffffffffffffffffffffffffffffffffffffffffffffffffffffffffff1916815260200191505060405180910390f35b3480156112be57600080fd5b50611303600480360381019080803590602001908201803590602001919091929391929390803590602001908201803590602001919091929391929390505050613546565b005b61140860048036038101908080359060200190929190803590602001908201803590602001908080601f0160208091040260200160405190810160405280939291908181526020018383808284378201915050505050509192919290803590602001908201803590602001908080601f01602080910402602001604051908101604052809392919081815260200183838082843782019150505050505091929192908035806c0100000000000000000000000090049068010000000000000000900463ffffffff1677ffffffffffffffffffffffffffffffffffffffffffffffff169091602001919093929190939291908035906020019092919050505061364c565b60405180826000191660001916815260200191505060405180910390f35b34801561143257600080fd5b5061145160048036038101908080359060200190929190505050613a63565b005b34801561145f57600080fd5b5061147e60048036038101908080359060200190929190505050613b06565b60405180826000191660001916815260200191505060405180910390f35b6114f8600480360381019080803590602001908201803590602001919091929391929390803590602001908201803590602001919091929391929390803590602001908201803590602001919091929391929390505050613b29565b60405180826000191660001916815260200191505060405180910390f35b34801561152257600080fd5b50611563600480360381019080803573ffffffffffffffffffffffffffffffffffffffff169060200190929190803515159060200190929190505050613bde565b005b61166860048036038101908080359060200190929190803590602001908201803590602001908080601f0160208091040260200160405190810160405280939291908181526020018383808284378201915050505050509192919290803590602001908201803590602001908080601f01602080910402602001604051908101604052809392919081815260200183838082843782019150505050505091929192908035806c0100000000000000000000000090049068010000000000000000900463ffffffff1677ffffffffffffffffffffffffffffffffffffffffffffffff1690916020019190939291909392919080359060200190929190505050613d1e565b60405180826000191660001916815260200191505060405180910390f35b60006116fb8686868080601f01602080910402602001604051908101604052809392919081815260200183838082843782019150505050505085858080601f01602080910402602001604051908101604052809392919081815260200183838082843782019150505050505062030d40611894565b905095945050505050565b6000611713838333614135565b905092915050565b6000611791600086868080601f01602080910402602001604051908101604052809392919081815260200183838082843782019150505050505085858080601f01602080910402602001604051908101604052809392919081815260200183838082843782019150505050505062030d40611894565b9050949350505050565b60085481565b6117a96143d3565b600160008273ffffffffffffffffffffffffffffffffffffffff1673ffffffffffffffffffffffffffffffffffffffff16815260200190815260200160002060006101000a81549060ff021916905550565b60006118056143d3565b6000600c8161181491906144c2565b50600090505b8282905081101561187c57600c838383818110151561183557fe5b90506020020135600019169080600181540180825580915050906001820390600052602060002001600090919290919091509060001916905550808060010191505061181a565b505050565b600061188d8233614431565b9050919050565b60006118a08483614449565b50624f1a0042018511806118b357504582115b156118bd57600080fd5b30336000803373ffffffffffffffffffffffffffffffffffffffff1673ffffffffffffffffffffffffffffffffffffffff16815260200190815260200160002054604051808473ffffffffffffffffffffffffffffffffffffffff1673ffffffffffffffffffffffffffffffffffffffff166c010000000000000000000000000281526014018373ffffffffffffffffffffffffffffffffffffffff1673ffffffffffffffffffffffffffffffffffffffff166c010000000000000000000000000281526014018281526020019350505050604051809103902090506000803373ffffffffffffffffffffffffffffffffffffffff1673ffffffffffffffffffffffffffffffffffffffff168152602001908152602001600020600081548092919060010191905055507fb76d0edd90c6a07aa3ff7a222d7f5933e29c6acc660c059c97837f05c4ca1a84338287878787600660003373ffffffffffffffffffffffffffffffffffffffff1673ffffffffffffffffffffffffffffffffffffffff16815260200190815260200160002060009054906101000a90047f010000000000000000000000000000000000000000000000000000000000000002600760003373ffffffffffffffffffffffffffffffffffffffff1673ffffffffffffffffffffffffffffffffffffffff16815260200190815260200160002054604051808973ffffffffffffffffffffffffffffffffffffffff1673ffffffffffffffffffffffffffffffffffffffff16815260200188600019166000191681526020018781526020018060200180602001868152602001857effffffffffffffffffffffffffffffffffffffffffffffffffffffffffffff19167effffffffffffffffffffffffffffffffffffffffffffffffffffffffffffff19168152602001848152602001838103835288818151815260200191508051906020019080838360005b83811015611b9a578082015181840152602081019050611b7f565b50505050905090810190601f168015611bc75780820380516001836020036101000a031916815260200191505b50838103825287818151815260200191508051906020019080838360005b83811015611c00578082015181840152602081019050611be5565b50505050905090810190601f168015611c2d5780820380516001836020036101000a031916815260200191505b509a505050505050505050505060405180910390a1809050949350505050565b611c556143d3565b611c7082826020604051908101604052806000815250611e8b565b5050565b611c7c6143d3565b8073ffffffffffffffffffffffffffffffffffffffff166108fc3073ffffffffffffffffffffffffffffffffffffffff16319081150290604051600060405180830381858888f193505050505050565b80600660003373ffffffffffffffffffffffffffffffffffffffff1673ffffffffffffffffffffffffffffffffffffffff16815260200190815260200160002060006101000a81548160ff02191690837f01000000000000000000000000000000000000000000000000000000000000009004021790555050565b6000611d516143d3565b600090505b84849050811015611e06578484828181101515611d6f57fe5b9050602002013560001916600b808054809190600101611d8f91906144c2565b815481101515611d9b57fe5b9060005260206000200181600019169055508282828181101515611dbb57fe5b90506020020135600a60008787858181101515611dd457fe5b905060200201356000191660001916600019168152602001908152602001600020819055508080600101915050611d56565b5050505050565b6000611e7f8787878080601f01602080910402602001604051908101604052809392919081815260200183838082843782019150505050505086868080601f01602080910402602001604051908101604052809392919081815260200183838082843782019150505050505085611894565b90509695505050505050565b611e936143d3565b81600160008573ffffffffffffffffffffffffffffffffffffffff1673ffffffffffffffffffffffffffffffffffffffff16815260200190815260200160002060006101000a81548160ff02191690837f010000000000000000000000000000000000000000000000000000000000000090040217905550505050565b6000611fb88888888080601f01602080910402602001604051908101604052809392919081815260200183838082843782019150505050505087878080601f01602080910402602001604051908101604052809392919081815260200183838082843782019150505050505086868080601f01602080910402602001604051908101604052809392919081815260200183838082843782019150505050505062030d4061208a565b9050979650505050505050565b60026020528060005260406000206000915054906101000a900460ff1681565b6000611fef6143d3565b83600881905550600090505b600b8054905081101561208457600a6000600b8381548110151561201b57fe5b90600052602060002001546000191660001916815260200190815260200160002054840260096000600b8481548110151561205257fe5b906000526020600020015460001916600019168152602001908152602001600020819055508080600101915050611ffb565b50505050565b60006120968583614449565b50624f1a0042018611806120a957504582115b156120b357600080fd5b30336000803373ffffffffffffffffffffffffffffffffffffffff1673ffffffffffffffffffffffffffffffffffffffff16815260200190815260200160002054604051808473ffffffffffffffffffffffffffffffffffffffff1673ffffffffffffffffffffffffffffffffffffffff166c010000000000000000000000000281526014018373ffffffffffffffffffffffffffffffffffffffff1673ffffffffffffffffffffffffffffffffffffffff166c010000000000000000000000000281526014018281526020019350505050604051809103902090506000803373ffffffffffffffffffffffffffffffffffffffff1673ffffffffffffffffffffffffffffffffffffffff168152602001908152602001600020600081548092919060010191905055507faf30e4d66b2f1f23e63ef4591058a897f67e6867233e33ca3508b982dcc4129b33828888888888600660003373ffffffffffffffffffffffffffffffffffffffff1673ffffffffffffffffffffffffffffffffffffffff16815260200190815260200160002060009054906101000a90047f010000000000000000000000000000000000000000000000000000000000000002600760003373ffffffffffffffffffffffffffffffffffffffff1673ffffffffffffffffffffffffffffffffffffffff16815260200190815260200160002054604051808a73ffffffffffffffffffffffffffffffffffffffff1673ffffffffffffffffffffffffffffffffffffffff1681526020018960001916600019168152602001888152602001806020018060200180602001878152602001867effffffffffffffffffffffffffffffffffffffffffffffffffffffffffffff19167effffffffffffffffffffffffffffffffffffffffffffffffffffffffffffff1916815260200185815260200184810384528a818151815260200191508051906020019080838360005b8381101561239557808201518184015260208101905061237a565b50505050905090810190601f1680156123c25780820380516001836020036101000a031916815260200191505b50848103835289818151815260200191508051906020019080838360005b838110156123fb5780820151818401526020810190506123e0565b50505050905090810190601f1680156124285780820380516001836020036101000a031916815260200191505b50848103825288818151815260200191508051906020019080838360005b83811015612461578082015181840152602081019050612446565b50505050905090810190601f16801561248e5780820380516001836020036101000a031916815260200191505b509c5050505050505050505050505060405180910390a180905095945050505050565b6124b96143d3565b80600460006101000a81548173ffffffffffffffffffffffffffffffffffffffff021916908373ffffffffffffffffffffffffffffffffffffffff16021790555050565b60006125098483614449565b50624f1a00420185118061251c57504582115b1561252657600080fd5b30336000803373ffffffffffffffffffffffffffffffffffffffff1673ffffffffffffffffffffffffffffffffffffffff16815260200190815260200160002054604051808473ffffffffffffffffffffffffffffffffffffffff1673ffffffffffffffffffffffffffffffffffffffff166c010000000000000000000000000281526014018373ffffffffffffffffffffffffffffffffffffffff1673ffffffffffffffffffffffffffffffffffffffff166c010000000000000000000000000281526014018281526020019350505050604051809103902090506000803373ffffffffffffffffffffffffffffffffffffffff1673ffffffffffffffffffffffffffffffffffffffff168152602001908152602001600020600081548092919060010191905055507f3af7d71c651d8670228b02a0b636ffa73a7f759ef99ff9c024bc3b044a724438338287878787600660003373ffffffffffffffffffffffffffffffffffffffff1673ffffffffffffffffffffffffffffffffffffffff16815260200190815260200160002060009054906101000a90047f010000000000000000000000000000000000000000000000000000000000000002600760003373ffffffffffffffffffffffffffffffffffffffff1673ffffffffffffffffffffffffffffffffffffffff16815260200190815260200160002054604051808973ffffffffffffffffffffffffffffffffffffffff1673ffffffffffffffffffffffffffffffffffffffff16815260200188600019166000191681526020018781526020018060200180602001868152602001857effffffffffffffffffffffffffffffffffffffffffffffffffffffffffffff19167effffffffffffffffffffffffffffffffffffffffffffffffffffffffffffff19168152602001848152602001838103835288818151815260200191508051906020019080838360005b838110156128035780820151818401526020810190506127e8565b50505050905090810190601f1680156128305780820380516001836020036101000a031916815260200191505b50838103825287818151815260200191508051906020019080838360005b8381101561286957808201518184015260208101905061284e565b50505050905090810190601f1680156128965780820380516001836020036101000a031916815260200191505b509a505050505050505050505060405180910390a1809050949350505050565b600061292c600086868080601f01602080910402602001604051908101604052809392919081815260200183838082843782019150505050505085858080601f01602080910402602001604051908101604052809392919081815260200183838082843782019150505050505062030d40611894565b9050949350505050565b60006129ab8686868080601f01602080910402602001604051908101604052809392919081815260200183838082843782019150505050505085858080601f01602080910402602001604051908101604052809392919081815260200183838082843782019150505050505062030d406124fd565b905095945050505050565b6000612a5b8989898080601f01602080910402602001604051908101604052809392919081815260200183838082843782019150505050505088888080601f01602080910402602001604051908101604052809392919081815260200183838082843782019150505050505087878080601f0160208091040260200160405190810160405280939291908181526020018383808284378201915050505050508661208a565b905098975050505050505050565b612a716143d3565b80600360006101000a81548173ffffffffffffffffffffffffffffffffffffffff021916908373ffffffffffffffffffffffffffffffffffffffff16021790555050565b6000612b2b600086868080601f01602080910402602001604051908101604052809392919081815260200183838082843782019150505050505085858080601f01602080910402602001604051908101604052809392919081815260200183838082843782019150505050505062030d406124fd565b9050949350505050565b612b9583838080601f01602080910402602001604051908101604052809392919081815260200183838082843782019150505050505060007f0100000000000000000000000000000000000000000000000000000000000000028361312c565b505050565b600080600c805490506000803373ffffffffffffffffffffffffffffffffffffffff1673ffffffffffffffffffffffffffffffffffffffff1681526020019081526020016000205460405180828152602001915050604051809103902060019004811515612c0457fe5b069050600c81815481101515612c1657fe5b906000526020600020015491505090565b6000612c338783614449565b50624f1a004201881180612c4657504582115b80612c7d57503373ffffffffffffffffffffffffffffffffffffffff168473ffffffffffffffffffffffffffffffffffffffff1614155b15612c8757600080fd5b30336000803373ffffffffffffffffffffffffffffffffffffffff1673ffffffffffffffffffffffffffffffffffffffff16815260200190815260200160002054604051808473ffffffffffffffffffffffffffffffffffffffff1673ffffffffffffffffffffffffffffffffffffffff166c010000000000000000000000000281526014018373ffffffffffffffffffffffffffffffffffffffff1673ffffffffffffffffffffffffffffffffffffffff166c010000000000000000000000000281526014018281526020019350505050604051809103902090506000803373ffffffffffffffffffffffffffffffffffffffff1673ffffffffffffffffffffffffffffffffffffffff168152602001908152602001600020600081548092919060010191905055507fcc57f89a6a20799d672e6569d224340220a0891ad6efa3039e7728f0c88854b333828a8a8a8a8a8a8a600660003373ffffffffffffffffffffffffffffffffffffffff1673ffffffffffffffffffffffffffffffffffffffff16815260200190815260200160002060009054906101000a90047f010000000000000000000000000000000000000000000000000000000000000002600760003373ffffffffffffffffffffffffffffffffffffffff1673ffffffffffffffffffffffffffffffffffffffff16815260200190815260200160002054604051808c73ffffffffffffffffffffffffffffffffffffffff1673ffffffffffffffffffffffffffffffffffffffff1681526020018b600019166000191681526020018a8152602001806020018060200180602001898963ffffffff1690640100000000021768010000000000000000028152602001878152602001867effffffffffffffffffffffffffffffffffffffffffffffffffffffffffffff19167effffffffffffffffffffffffffffffffffffffffffffffffffffffffffffff1916815260200185815260200184810384528c818151815260200191508051906020019080838360005b83811015612f8c578082015181840152602081019050612f71565b50505050905090810190601f168015612fb95780820380516001836020036101000a031916815260200191505b5084810383528b818151815260200191508051906020019080838360005b83811015612ff2578082015181840152602081019050612fd7565b50505050905090810190601f16801561301f5780820380516001836020036101000a031916815260200191505b5084810382528a818151815260200191508051906020019080838360005b8381101561305857808201518184015260208101905061303d565b50505050905090810190601f1680156130855780820380516001836020036101000a031916815260200191505b509e50505050505050505050505050505060405180910390a1809050979650505050505050565b60006131218686868080601f01602080910402602001604051908101604052809392919081815260200183838082843782019150505050505085858080601f01602080910402602001604051908101604052809392919081815260200183838082843782019150505050505062030d40611894565b905095945050505050565b60006131366143d3565b83836040518083805190602001908083835b60208310151561316d5780518252602082019150602081019050602083039250613148565b6001836020036101000a038019825116818451168082178552505050505050905001827effffffffffffffffffffffffffffffffffffffffffffffffffffffffffffff19167effffffffffffffffffffffffffffffffffffffffffffffffffffffffffffff19168152600101925050506040518091039020905080600b8080548091906001016131fd91906144c2565b81548110151561320957fe5b90600052602060002001816000191690555081600a600083600019166000191681526020019081526020016000208190555050505050565b6132496143d3565b8060058190555050565b6000807f010000000000000000000000000000000000000000000000000000000000000002600160003273ffffffffffffffffffffffffffffffffffffffff1673ffffffffffffffffffffffffffffffffffffffff16815260200190815260200160002060009054906101000a90047f0100000000000000000000000000000000000000000000000000000000000000027effffffffffffffffffffffffffffffffffffffffffffffffffffffffffffff1916141515613311573290505b90565b60006133868787878080601f01602080910402602001604051908101604052809392919081815260200183838082843782019150505050505086868080601f01602080910402602001604051908101604052809392919081815260200183838082843782019150505050505085611894565b90509695505050505050565b60006134048787878080601f01602080910402602001604051908101604052809392919081815260200183838082843782019150505050505086868080601f016020809104026020016040519081016040528093929190818152602001838380828437820191505050505050856124fd565b90509695505050505050565b80600760003373ffffffffffffffffffffffffffffffffffffffff1673ffffffffffffffffffffffffffffffffffffffff1681526020019081526020016000208190555050565b60006134616143d3565b600090505b8282905081101561350057848482818110151561347f57fe5b9050602002013560076000858585818110151561349857fe5b9050602002013573ffffffffffffffffffffffffffffffffffffffff1673ffffffffffffffffffffffffffffffffffffffff1673ffffffffffffffffffffffffffffffffffffffff168152602001908152602001600020819055508080600101915050613466565b5050505050565b60016020528060005260406000206000915054906101000a90047f01000000000000000000000000000000000000000000000000000000000000000281565b60006135506143d3565b600090505b8282905081101561364557848482818110151561356e57fe5b905060200201357f0100000000000000000000000000000000000000000000000000000000000000026006600085858581811015156135a957fe5b9050602002013573ffffffffffffffffffffffffffffffffffffffff1673ffffffffffffffffffffffffffffffffffffffff1673ffffffffffffffffffffffffffffffffffffffff16815260200190815260200160002060006101000a81548160ff02191690837f0100000000000000000000000000000000000000000000000000000000000000900402179055508080600101915050613555565b5050505050565b60006136588683614449565b50624f1a00420187118061366b57504582115b806136a257503373ffffffffffffffffffffffffffffffffffffffff168473ffffffffffffffffffffffffffffffffffffffff1614155b156136ac57600080fd5b30336000803373ffffffffffffffffffffffffffffffffffffffff1673ffffffffffffffffffffffffffffffffffffffff16815260200190815260200160002054604051808473ffffffffffffffffffffffffffffffffffffffff1673ffffffffffffffffffffffffffffffffffffffff166c010000000000000000000000000281526014018373ffffffffffffffffffffffffffffffffffffffff1673ffffffffffffffffffffffffffffffffffffffff166c010000000000000000000000000281526014018281526020019350505050604051809103902090506000803373ffffffffffffffffffffffffffffffffffffffff1673ffffffffffffffffffffffffffffffffffffffff168152602001908152602001600020600081548092919060010191905055507f5051eab4e301cef16e893db3c7a192f8cbf7bb44e1a92b928665c66170930a393382898989898989600660003373ffffffffffffffffffffffffffffffffffffffff1673ffffffffffffffffffffffffffffffffffffffff16815260200190815260200160002060009054906101000a90047f010000000000000000000000000000000000000000000000000000000000000002600760003373ffffffffffffffffffffffffffffffffffffffff1673ffffffffffffffffffffffffffffffffffffffff16815260200190815260200160002054604051808b73ffffffffffffffffffffffffffffffffffffffff1673ffffffffffffffffffffffffffffffffffffffff1681526020018a600019166000191681526020018981526020018060200180602001888863ffffffff1690640100000000021768010000000000000000028152602001868152602001857effffffffffffffffffffffffffffffffffffffffffffffffffffffffffffff19167effffffffffffffffffffffffffffffffffffffffffffffffffffffffffffff1916815260200184815260200183810383528a818151815260200191508051906020019080838360005b838110156139ac578082015181840152602081019050613991565b50505050905090810190601f1680156139d95780820380516001836020036101000a031916815260200191505b50838103825289818151815260200191508051906020019080838360005b83811015613a125780820151818401526020810190506139f7565b50505050905090810190601f168015613a3f5780820380516001836020036101000a031916815260200191505b509c5050505050505050505050505060405180910390a18090509695505050505050565b6000613a6d6143d3565b81600881905550600090505b600b80549050811015613b0257600a6000600b83815481101515613a9957fe5b90600052602060002001546000191660001916815260200190815260200160002054820260096000600b84815481101515613ad057fe5b906000526020600020015460001916600019168152602001908152602001600020819055508080600101915050613a79565b5050565b600c81815481101515613b1557fe5b906000526020600020016000915090505481565b6000613bd2600088888080601f01602080910402602001604051908101604052809392919081815260200183838082843782019150505050505087878080601f01602080910402602001604051908101604052809392919081815260200183838082843782019150505050505086868080601f01602080910402602001604051908101604052809392919081815260200183838082843782019150505050505062030d4061208a565b90509695505050505050565b600460009054906101000a900473ffffffffffffffffffffffffffffffffffffffff1673ffffffffffffffffffffffffffffffffffffffff163373ffffffffffffffffffffffffffffffffffffffff16141515613c3a57600080fd5b80600260008473ffffffffffffffffffffffffffffffffffffffff1673ffffffffffffffffffffffffffffffffffffffff16815260200190815260200160002060006101000a81548160ff0219169083151502179055508015158273ffffffffffffffffffffffffffffffffffffffff167f84feab93d65c19f28e91b26f8245938bf3a97dab7b8dafe3c8b028954e9ac9348484604051808373ffffffffffffffffffffffffffffffffffffffff1673ffffffffffffffffffffffffffffffffffffffff168152602001821515151581526020019250505060405180910390a35050565b6000613d2a8683614449565b50624f1a004201871180613d3d57504582115b80613d7457503373ffffffffffffffffffffffffffffffffffffffff168473ffffffffffffffffffffffffffffffffffffffff1614155b15613d7e57600080fd5b30336000803373ffffffffffffffffffffffffffffffffffffffff1673ffffffffffffffffffffffffffffffffffffffff16815260200190815260200160002054604051808473ffffffffffffffffffffffffffffffffffffffff1673ffffffffffffffffffffffffffffffffffffffff166c010000000000000000000000000281526014018373ffffffffffffffffffffffffffffffffffffffff1673ffffffffffffffffffffffffffffffffffffffff166c010000000000000000000000000281526014018281526020019350505050604051809103902090506000803373ffffffffffffffffffffffffffffffffffffffff1673ffffffffffffffffffffffffffffffffffffffff168152602001908152602001600020600081548092919060010191905055507f90552fb8e54d9a2aa4212413b16aa948c66cab32c9fe727ff74be1850bb0a8be3382898989898989600660003373ffffffffffffffffffffffffffffffffffffffff1673ffffffffffffffffffffffffffffffffffffffff16815260200190815260200160002060009054906101000a90047f010000000000000000000000000000000000000000000000000000000000000002600760003373ffffffffffffffffffffffffffffffffffffffff1673ffffffffffffffffffffffffffffffffffffffff16815260200190815260200160002054604051808b73ffffffffffffffffffffffffffffffffffffffff1673ffffffffffffffffffffffffffffffffffffffff1681526020018a600019166000191681526020018981526020018060200180602001888863ffffffff1690640100000000021768010000000000000000028152602001868152602001857effffffffffffffffffffffffffffffffffffffffffffffffffffffffffffff19167effffffffffffffffffffffffffffffffffffffffffffffffffffffffffffff1916815260200184815260200183810383528a818151815260200191508051906020019080838360005b8381101561407e578082015181840152602081019050614063565b50505050905090810190601f1680156140ab5780820380516001836020036101000a031916815260200191505b50838103825289818151815260200191508051906020019080838360005b838110156140e45780820151818401526020810190506140c9565b50505050905090810190601f1680156141115780820380516001836020036101000a031916815260200191505b509c5050505050505050505050505060405180910390a18090509695505050505050565b600080600760008473ffffffffffffffffffffffffffffffffffffffff1673ffffffffffffffffffffffffffffffffffffffff168152602001908152602001600020549050600260008473ffffffffffffffffffffffffffffffffffffffff1673ffffffffffffffffffffffffffffffffffffffff16815260200190815260200160002060009054906101000a900460ff168061426c575062030d40841115801561421e575060008060008573ffffffffffffffffffffffffffffffffffffffff1673ffffffffffffffffffffffffffffffffffffffff16815260200190815260200160002054145b801561422c57506005548111155b801561426b575061423b613253565b73ffffffffffffffffffffffffffffffffffffffff163273ffffffffffffffffffffffffffffffffffffffff1614155b5b1561427a57600091506143cb565b60008114156142895760055490505b6009600086600660008773ffffffffffffffffffffffffffffffffffffffff1673ffffffffffffffffffffffffffffffffffffffff16815260200190815260200160002060009054906101000a90047f0100000000000000000000000000000000000000000000000000000000000000026040518083805190602001908083835b60208310151561432f578051825260208201915060208101905060208303925061430a565b6001836020036101000a038019825116818451168082178552505050505050905001827effffffffffffffffffffffffffffffffffffffffffffffffffffffffffffff19167effffffffffffffffffffffffffffffffffffffffffffffffffffffffffffff1916815260010192505050604051809103902060001916600019168152602001908152602001600020549150808402820191508191505b509392505050565b600360009054906101000a900473ffffffffffffffffffffffffffffffffffffffff1673ffffffffffffffffffffffffffffffffffffffff163373ffffffffffffffffffffffffffffffffffffffff1614151561442f57600080fd5b565b60006144418362030d4084614135565b905092915050565b600080614457848433614135565b915081341015156144b657813403905060008111156144b1573373ffffffffffffffffffffffffffffffffffffffff166108fc829081150290604051600060405180830381858888f1935050505015156144b057600080fd5b5b6144bb565b600080fd5b5092915050565b8154818355818111156144e9578183600052602060002091820191016144e891906144ee565b5b505050565b61451091905b8082111561450c5760008160009055506001016144f4565b5090565b905600a165627a7a72305820f00d013b81d4c0f44eb785e37da166011739c23ba9f2a0324952d1488b8d6b380029",
  "source": "/*\nCopyright (c) 2015-2016 Oraclize SRL\nCopyright (c) 2016-2017 Oraclize LTD\n*/\n\n/*\nOraclize Connector v1.2.0\n*/\n\n// 'compressed' alternative, where all modifiers have been changed to FUNCTIONS\n// which is cheaper for deployment, potentially cheaper execution\n\npragma solidity ^0.4.11;\n\ncontract Oraclize {\n    mapping (address => uint) reqc;\n\n    mapping (address => byte) public cbAddresses;\n\n    mapping (address => bool) public offchainPayment;\n\n    event Log1(address sender, bytes32 cid, uint timestamp, string datasource, string arg, uint gaslimit, byte proofType, uint gasPrice);\n    event Log2(address sender, bytes32 cid, uint timestamp, string datasource, string arg1, string arg2, uint gaslimit, byte proofType, uint gasPrice);\n    event LogN(address sender, bytes32 cid, uint timestamp, string datasource, bytes args, uint gaslimit, byte proofType, uint gasPrice);\n    event Log1_fnc(address sender, bytes32 cid, uint timestamp, string datasource, string arg, function() external callback, uint gaslimit, byte proofType, uint gasPrice);\n    event Log2_fnc(address sender, bytes32 cid, uint timestamp, string datasource, string arg1, string arg2, function() external callback, uint gaslimit, byte proofType, uint gasPrice);\n    event LogN_fnc(address sender, bytes32 cid, uint timestamp, string datasource, bytes args, function() external callback, uint gaslimit, byte proofType, uint gasPrice);\n\n    event Emit_OffchainPaymentFlag(address indexed idx_sender, address sender, bool indexed idx_flag, bool flag);\n\n    address owner;\n    address paymentFlagger;\n\n    function changeAdmin(address _newAdmin)\n    external\n    {\n        onlyadmin();\n        owner = _newAdmin;\n    }\n\n    function changePaymentFlagger(address _newFlagger)\n    external\n    {\n        onlyadmin();\n        paymentFlagger = _newFlagger;\n    }\n\n    function addCbAddress(address newCbAddress, byte addressType)\n    external\n    {\n        onlyadmin();\n        //bytes memory nil = '';\n        addCbAddress(newCbAddress, addressType, hex'');\n    }\n\n    // proof is currently a placeholder for when associated proof for addressType is added\n    function addCbAddress(address newCbAddress, byte addressType, bytes proof)\n    public\n    {\n        onlyadmin();\n        cbAddresses[newCbAddress] = addressType;\n    }\n\n    function removeCbAddress(address newCbAddress)\n    external\n    {\n        onlyadmin();\n        delete cbAddresses[newCbAddress];\n    }\n\n    function cbAddress()\n    constant\n    returns (address _cbAddress)\n    {\n        if (cbAddresses[tx.origin] != 0)\n            _cbAddress = tx.origin;\n    }\n\n    function addDSource(string dsname, uint multiplier)\n    external\n    {\n        addDSource(dsname, 0x00, multiplier);\n    }\n\n    function addDSource(string dsname, byte proofType, uint multiplier)\n    public\n    {\n        onlyadmin();\n        bytes32 dsname_hash = sha3(dsname, proofType);\n        dsources[dsources.length++] = dsname_hash;\n        price_multiplier[dsname_hash] = multiplier;\n    }\n\n    // Utilized by bridge\n    function multiAddDSource(bytes32[] dsHash, uint256[] multiplier)\n    external\n    {\n        onlyadmin();\n        // dsHash -> sha3(DATASOURCE_NAME, PROOF_TYPE);\n        for (uint i=0; i<dsHash.length; i++) {\n            dsources[dsources.length++] = dsHash[i];\n            price_multiplier[dsHash[i]] = multiplier[i];\n        }\n    }\n\n    function multisetProofType(uint[] _proofType, address[] _addr)\n    external\n    {\n        onlyadmin();\n        for (uint i=0; i<_addr.length; i++) addr_proofType[_addr[i]] = byte(_proofType[i]);\n    }\n\n    function multisetCustomGasPrice(uint[] _gasPrice, address[] _addr)\n    external\n    {\n        onlyadmin();\n        for (uint i=0; i<_addr.length; i++) addr_gasPrice[_addr[i]] = _gasPrice[i];\n    }\n\n    uint gasprice = 20000000000;\n\n    function setGasPrice(uint newgasprice)\n    external\n    {\n        onlyadmin();\n        gasprice = newgasprice;\n    }\n\n    function setBasePrice(uint new_baseprice)\n    external\n    { //0.001 usd in ether\n        onlyadmin();\n        baseprice = new_baseprice;\n        for (uint i=0; i<dsources.length; i++) price[dsources[i]] = new_baseprice*price_multiplier[dsources[i]];\n    }\n\n    function setBasePrice(uint new_baseprice, bytes proofID)\n    external\n    { //0.001 usd in ether\n        onlyadmin();\n        baseprice = new_baseprice;\n        for (uint i=0; i<dsources.length; i++) price[dsources[i]] = new_baseprice*price_multiplier[dsources[i]];\n    }\n\n    function setOffchainPayment(address _addr, bool _flag)\n    external\n    {\n      if (msg.sender != paymentFlagger) throw;\n      offchainPayment[_addr] = _flag;\n      Emit_OffchainPaymentFlag(_addr, _addr, _flag, _flag);\n    }\n\n    function withdrawFunds(address _addr)\n    external\n    {\n        onlyadmin();\n        _addr.send(this.balance);\n    }\n\n    // unnecessary?\n    //function() {}\n\n    function Oraclize() {\n        owner = msg.sender;\n    }\n\n    // Pesudo-modifiers\n\n    function onlyadmin()\n    private {\n        if (msg.sender != owner) throw;\n    }\n\n    function costs(string datasource, uint gaslimit)\n    private\n    returns (uint price) {\n        price = getPrice(datasource, gaslimit, msg.sender);\n\n        if (msg.value >= price){\n            uint diff = msg.value - price;\n            if (diff > 0) {\n                // added for correct query cost to be returned\n                if(!msg.sender.send(diff)) {\n                    throw;\n                }\n            }\n        } else throw;\n    }\n\n    mapping (address => byte) addr_proofType;\n    mapping (address => uint) addr_gasPrice;\n    uint public baseprice;\n    mapping (bytes32 => uint) price;\n    mapping (bytes32 => uint) price_multiplier;\n    bytes32[] dsources;\n\n    bytes32[] public randomDS_sessionPubKeysHash;\n\n    function randomDS_updateSessionPubKeysHash(bytes32[] _newSessionPubKeysHash)\n    external\n    {\n        onlyadmin();\n        randomDS_sessionPubKeysHash.length = 0;\n        for (uint i=0; i<_newSessionPubKeysHash.length; i++) randomDS_sessionPubKeysHash.push(_newSessionPubKeysHash[i]);\n    }\n\n    function randomDS_getSessionPubKeyHash()\n    external\n    constant\n    returns (bytes32) {\n        uint i = uint(sha3(reqc[msg.sender]))%randomDS_sessionPubKeysHash.length;\n        return randomDS_sessionPubKeysHash[i];\n    }\n\n    function setProofType(byte _proofType)\n    external\n    {\n        addr_proofType[msg.sender] = _proofType;\n    }\n\n    function setCustomGasPrice(uint _gasPrice)\n    external\n    {\n        addr_gasPrice[msg.sender] = _gasPrice;\n    }\n\n    function getPrice(string _datasource)\n    public\n    returns (uint _dsprice)\n    {\n        return getPrice(_datasource, msg.sender);\n    }\n\n    function getPrice(string _datasource, uint _gaslimit)\n    public\n    returns (uint _dsprice)\n    {\n        return getPrice(_datasource, _gaslimit, msg.sender);\n    }\n\n    function getPrice(string _datasource, address _addr)\n    private\n    returns (uint _dsprice)\n    {\n        return getPrice(_datasource, 200000, _addr);\n    }\n\n    function getPrice(string _datasource, uint _gaslimit, address _addr)\n    private\n    returns (uint _dsprice)\n    {\n        uint gasprice_ = addr_gasPrice[_addr];\n        if (\n                (offchainPayment[_addr])\n            ||(\n                (_gaslimit <= 200000)&&\n                (reqc[_addr] == 0)&&\n                (gasprice_ <= gasprice)&&\n                (tx.origin != cbAddress())\n            )\n        ) return 0;\n\n        if (gasprice_ == 0) gasprice_ = gasprice;\n        _dsprice = price[sha3(_datasource, addr_proofType[_addr])];\n        _dsprice += _gaslimit*gasprice_;\n        return _dsprice;\n    }\n\n    function getCodeSize(address _addr)\n    private\n    constant\n    returns(uint _size)\n    {\n        assembly {\n            _size := extcodesize(_addr)\n        }\n    }\n\n    function query(string _datasource, string _arg)\n    payable\n    external\n    returns (bytes32 _id)\n    {\n        return query1(0, _datasource, _arg, 200000);\n    }\n\n    function query1(string _datasource, string _arg)\n    payable\n    external\n    returns (bytes32 _id)\n    {\n        return query1(0, _datasource, _arg, 200000);\n    }\n\n    function query2(string _datasource, string _arg1, string _arg2)\n    payable\n    external\n    returns (bytes32 _id)\n    {\n        return query2(0, _datasource, _arg1, _arg2, 200000);\n    }\n\n    function queryN(string _datasource, bytes _args)\n    payable\n    external\n    returns (bytes32 _id)\n    {\n        return queryN(0, _datasource, _args, 200000);\n    }\n\n    function query(uint _timestamp, string _datasource, string _arg)\n    payable\n    external\n    returns (bytes32 _id)\n    {\n        return query1(_timestamp, _datasource, _arg, 200000);\n    }\n\n    function query1(uint _timestamp, string _datasource, string _arg)\n    payable\n    external\n    returns (bytes32 _id)\n    {\n        return query1(_timestamp, _datasource, _arg, 200000);\n    }\n\n    function query2(uint _timestamp, string _datasource, string _arg1, string _arg2)\n    payable\n    external\n    returns (bytes32 _id)\n    {\n        return query2(_timestamp, _datasource, _arg1, _arg2, 200000);\n    }\n\n    function queryN(uint _timestamp, string _datasource, bytes _args)\n    payable\n    external\n    returns (bytes32 _id)\n    {\n        return queryN(_timestamp, _datasource, _args, 200000);\n    }\n\n/*  Needless?\n    function query(uint _timestamp, string _datasource, string _arg, uint _gaslimit)\n    payable\n    external\n    returns (bytes32 _id)\n    {\n        return query1(_timestamp, _datasource, _arg, _gaslimit);\n    }\n*/\n    function query_withGasLimit(uint _timestamp, string _datasource, string _arg, uint _gaslimit)\n    payable\n    external\n    returns (bytes32 _id)\n    {\n        return query1(_timestamp, _datasource, _arg, _gaslimit);\n    }\n\n    function query1_withGasLimit(uint _timestamp, string _datasource, string _arg, uint _gaslimit)\n    payable\n    external\n    returns (bytes32 _id)\n    {\n        return query1(_timestamp, _datasource, _arg, _gaslimit);\n    }\n\n    function query2_withGasLimit(uint _timestamp, string _datasource, string _arg1, string _arg2, uint _gaslimit)\n    payable\n    external\n    returns (bytes32 _id)\n    {\n        return query2(_timestamp, _datasource, _arg1, _arg2, _gaslimit);\n    }\n\n    function queryN_withGasLimit(uint _timestamp, string _datasource, bytes _args, uint _gaslimit)\n    payable\n    external\n    returns (bytes32 _id)\n    {\n        return queryN(_timestamp, _datasource, _args, _gaslimit);\n    }\n\n    function query1(uint _timestamp, string _datasource, string _arg, uint _gaslimit)\n    payable\n    public\n    returns (bytes32 _id)\n    {\n        costs(_datasource, _gaslimit);\n    \tif ((_timestamp > now+3600*24*60)||(_gaslimit > block.gaslimit)) throw;\n\n        _id = sha3(this, msg.sender, reqc[msg.sender]);\n        reqc[msg.sender]++;\n        Log1(msg.sender, _id, _timestamp, _datasource, _arg, _gaslimit, addr_proofType[msg.sender], addr_gasPrice[msg.sender]);\n        return _id;\n    }\n\n    function query2(uint _timestamp, string _datasource, string _arg1, string _arg2, uint _gaslimit)\n    payable\n    public\n    returns (bytes32 _id)\n    {\n        costs(_datasource, _gaslimit);\n    \tif ((_timestamp > now+3600*24*60)||(_gaslimit > block.gaslimit)) throw;\n\n        _id = sha3(this, msg.sender, reqc[msg.sender]);\n        reqc[msg.sender]++;\n        Log2(msg.sender, _id, _timestamp, _datasource, _arg1, _arg2, _gaslimit, addr_proofType[msg.sender], addr_gasPrice[msg.sender]);\n        return _id;\n    }\n\n    function queryN(uint _timestamp, string _datasource, bytes _args, uint _gaslimit)\n    payable\n    public\n    returns (bytes32 _id)\n    {\n        costs(_datasource, _gaslimit);\n    \tif ((_timestamp > now+3600*24*60)||(_gaslimit > block.gaslimit)) throw;\n\n        _id = sha3(this, msg.sender, reqc[msg.sender]);\n        reqc[msg.sender]++;\n        LogN(msg.sender, _id, _timestamp, _datasource, _args, _gaslimit, addr_proofType[msg.sender], addr_gasPrice[msg.sender]);\n        return _id;\n    }\n\n    function query1_fnc(uint _timestamp, string _datasource, string _arg, function() external _fnc, uint _gaslimit)\n    payable\n    public\n    returns (bytes32 _id)\n    {\n        costs(_datasource, _gaslimit);\n        if ((_timestamp > now+3600*24*60)||(_gaslimit > block.gaslimit)||address(_fnc) != msg.sender) throw;\n\n        _id = sha3(this, msg.sender, reqc[msg.sender]);\n        reqc[msg.sender]++;\n        Log1_fnc(msg.sender, _id, _timestamp, _datasource, _arg, _fnc, _gaslimit, addr_proofType[msg.sender], addr_gasPrice[msg.sender]);\n        return _id;\n    }\n\n    function query2_fnc(uint _timestamp, string _datasource, string _arg1, string _arg2, function() external _fnc, uint _gaslimit)\n    payable\n    public\n    returns (bytes32 _id)\n    {\n        costs(_datasource, _gaslimit);\n        if ((_timestamp > now+3600*24*60)||(_gaslimit > block.gaslimit)||address(_fnc) != msg.sender) throw;\n\n        _id = sha3(this, msg.sender, reqc[msg.sender]);\n        reqc[msg.sender]++;\n        Log2_fnc(msg.sender, _id, _timestamp, _datasource, _arg1, _arg2, _fnc,  _gaslimit, addr_proofType[msg.sender], addr_gasPrice[msg.sender]);\n        return _id;\n    }\n\n    function queryN_fnc(uint _timestamp, string _datasource, bytes _args, function() external _fnc, uint _gaslimit)\n    payable\n    public\n    returns (bytes32 _id)\n    {\n        costs(_datasource, _gaslimit);\n        if ((_timestamp > now+3600*24*60)||(_gaslimit > block.gaslimit)||address(_fnc) != msg.sender) throw;\n\n        _id = sha3(this, msg.sender, reqc[msg.sender]);\n        reqc[msg.sender]++;\n        LogN_fnc(msg.sender, _id, _timestamp, _datasource, _args, _fnc, _gaslimit, addr_proofType[msg.sender], addr_gasPrice[msg.sender]);\n        return _id;\n    }\n}",
  "sourcePath": "/Users/rpalacios/masteruah/merchant/contracts/ethereum-api/connectors/oraclizeConnector.sol",
  "compiler": {
    "name": "solc",
    "version": "0.4.24+commit.e67f0147.Emscripten.clang"
  },
  "schemaVersion": "2.0.1",
  "updatedAt": "2018-12-07T10:36:57.205Z"
}